:0200000470107A
:1000000053544D32000000000000000000000000CA
:1000100000000000000000000000000000000000E0
:1000200000000000000000000000000000000000D0
:1000300000000000000000000000000000000000C0
:1000400000000000000000000000000000000000B0
:1000500000000000000000000000000000000000A0
:10006000000000002653F201000302006025080092
:100070002D05023400000000FFFFFFFF000000001C
:100080000000000000000080A0010000000000004F
:100090000000000000000000000000000000000060
:1000A0005354FFFFA00100002333DFA71CD5855F59
:1000B000A8BE4C06A62A6A265415C2C87B0FB4E80F
:1000C000E3B00E1257CD2BE2ABFEEF783EBB86209D
:1000D0003DAB23A86160BBA764F7D9152747912FD3
:1000E000D3F6100EBF6D5F6B2CF1D35703D1F3E63F
:1000F0001FDF48BD65BC01C0137A3672BD3520F8DC
:10010000B985BF2089318F1C73AC5DF0F5F635B22F
:10011000BC63318A6171B4AAE95E2D04A85E07A0B0
:10012000490CF987149DBC40EC6F55DBB3113B8A39
:1001300069BFE728A5114DC516695EF14F93D4AA92
:10014000AEEA30CE4942F08FA0F5E3F5234C242EE1
:10015000101CC98150503C1713DF9679E26501FDF0
:1001600032872C98E16A2A387A9F01832381CA4218
:10017000CC71FEC67D6C389CF1F0EDBCF8DC02F170
:100180006CF417BCB2C516589CF19BDDA3B5D277B1
:10019000EE111BAC04F52345C21A7706989CE7C400
:1001A0000F30DED21D44CDEAB372354CB6E1F6AC69
:1001B00074349E8FB26D0D8FA06EBB87F335A4D9BA
:1001C000366BD1E1107A4EE1DAB0AA3BDAFAEF11E0
:1001D000E05F2AFED39CB57D9139A6D01CACC5ED5D
:1001E00044A8FC4EC9238CF10B12E4E84C6243375F
:1001F0008BBE9B96951911CE60B58776ED84796696
:10020000EACE05A2154A8F1715054F52E05696E320
:10021000B4938B4C3FBA4CE6104758327823D671D2
:100220006CAB54C0E440BB104102FE25DE6690C5B5
:1002300037E038326429C81A82A1F8EE8D9D501239
:1002400000000000000000000000000000000000AE
:10025000000000000000000000000000000000009E
:10026000000000000000000000000000000000008E
:10027000000000000000000000000000000000007E
:10028000000000000000000000000000000000006E
:10029000000000000000000000000000000000005E
:1002A000000000000000000000000000000000004E
:1002B000000000000000000000000000000000003E
:1002C000000000000000000000000000000000002E
:1002D000000000000000000000000000000000001E
:1002E000000000000000000000000000000000000E
:1002F00000000000000000000000000000000000FE
:1003000000000000000000000000000000000000ED
:1003100000000000000000000000000000000000DD
:1003200000000000000000000000000000000000CD
:1003300000000000000000000000000000000000BD
:1003400000000000000000000000000000000000AD
:10035000000000000000000000000000000000009D
:10036000000000000000000000000000000000008D
:10037000000000000000000000000000000000007D
:10038000000000000000000000000000000000006D
:10039000000000000000000000000000000000005D
:1003A000000000000000000000000000000000004D
:1003B000000000000000000000000000000000003D
:1003C000000000000000000000000000000000002D
:1003D000000000000000000000000000000000001D
:1003E000000000000000000000000000000000000D
:1003F00000000000000000000000000000000000FD
:10040000000020342D050234C13F00348905023438
:10041000C33F0034C53F003489050234C73F003470
:10042000000000000000000000000000C1EB0134EB
:10043000C93F00340000000051EB013485E801346D
:100440008905023400000000890502348905023460
:10045000890502348905023489050234890502348C
:100460008905023400000000890502348905023440
:1004700089050234ED2300348905023400000000B0
:100480008905023400000000890502348905023420
:10049000890502348905023489050234890502344C
:1004A000890502348905023489050234890502343C
:1004B000890502348905023489050234890502342C
:1004C000890502348905023489050234890502341C
:1004D000890502348905023489050234890502340C
:1004E00089050234000000008905023489050234C0
:1004F000890502348905023489050234CB3F003472
:10050000D93F00340000000000000000000000009F
:1005100089050234A972013489050234890502343F
:1005200089050234890502348905023489050234BB
:10053000F500023489050234890502348905023444
:1005400089050234E93F0034F53F0034890502345F
:10055000890502348905023489050234890502348B
:10056000890502348905023489050234890502347B
:10057000890502348905023489050234890502346B
:10058000B5F801348905023489050234890502343D
:10059000890502348905023489050234890502344B
:1005A000890502348905023489050234890502343B
:1005B000890502348905023489050234890502342B
:1005C000890502348905023489050234890502341B
:1005D000890502348905023489050234890502340B
:1005E00089050234890502348905023489050234FB
:1005F00089050234890502348905023489050234EB
:1006000089050234890502348905023489050234DA
:1006100089050234890502348905023489050234CA
:1006200089050234890502348905023489050234BA
:1006300089050234890502348905023489050234AA
:10064000890502348905023489050234890502349A
:10065000890502348905023489050234890502348A
:10066000890502348905023489050234890502347A
:10067000890502348905023489050234890502346A
:10068000890502348905023489050234890502345A
:10069000890502348905023489050234890502344A
:1006A000890502348905023489050234890502343A
:1006B00089050234A9F80134890502348905023418
:1006C000890502348905023489050234890502341A
:1006D000890502348905023489050234890502340A
:1006E00089050234890502348905023489050234FA
:1006F00089050234890502348905023489050234EA
:1007000089050234890502348905023489050234D9
:1007100089050234890502348905023489050234C9
:1007200089050234890502348905023489050234B9
:1007300089050234890502348905023489050234A9
:100740000000000089050234890502340000000021
:1007500010B5054C237833B9044B13B10448AFF3FB
:1007600000800123237010BDA02708340000000082
:10077000B05F023408B5034B1BB103490348AFF324
:10078000008008BD00000000A4270834B05F0234D8
:10079000034613F8012B002AFBD1181A01387047C1
:1007A00090EDAD6A30B52DED108B90EDA87BB5EED8
:1007B000C06A87B08DED007BF1EE10FA90EDA47B5E
:1007C000044691ED015A91ED004A91ED02FB91ED45
:1007D000048B90ED123B90EDAADB90ED16BB8DEDF6
:1007E000047B90EDA6EB09DCD0F8C832D4489847DA
:1007F0004FF0FF3007B0BDEC108B30BDB8EE455B5D
:100800009FEDC17BB8EE444B25EE077BB4EEC47B75
:10081000F1EE10FA0FDD90ED1C7B9FEDBD2B37EE56
:10082000022B9FEDBD7BB4EEC72BF1EE10FA37FE25
:10083000027B80ED1C7B9FEDBA7B25EE075BB4EE5F
:10084000C45BF1EE10FA10D594ED1C7B9FEDB05B0C
:1008500037EE457B9FEDB45BB4EEC57BF1EE10FA4D
:1008600058BFB0EE475B84ED1C5B83EE0D9BBCEE86
:10087000C99BB8EE499B29EE0D9BFCEEC97B94F811
:100880005050CDED037A012DB7EEC66A52D19FEDDF
:10089000A87B3FEE485B85EE07CB3FEE085B85EE1D
:1008A00007ABB0EECC7BB4EEC76BF1EE10FAB0EE56
:1008B000CA5B0DDBB4EEC56BF1EE10FA08DB00236A
:1008C00084F878300023B0EE498B84F8603049E03A
:1008D000B4EEC56BF1EE10FA0CD58AEE0C5B94ED1C
:1008E000AE6AB0EEC55BB7EEC66AB4EEC65BF1EEBB
:1008F00010FAE7DA0023F7EECB0BB7EEC70B84F85C
:10090000603025F0F1F9B2EE047BB7EEC00AB0EE2C
:10091000C86B20EE070BB0EECF7BB4EEC67BF1EEDA
:1009200010FA6FDDB5EEC0FBF1EE10FA6FD539EEBF
:10093000400B6EE0B0EECF5BB0EEC87BB4EEC57B93
:10094000F1EE10FA37FE057BB4EEC67BF1EE10FA3D
:1009500053D89FED79AB0023B0EE498BB0EE4ACB74
:1009600084F8603094F878302BBB102204F18801B1
:1009700004F1800020F038FE102204F1A00104F1FF
:10098000980020F031FED4E9302384ED249BC4E9A3
:100990002C23D4E9322384ED2A8BC4E92E23D4E915
:1009A000342384ED34CBC4E93023D4E9362384EDF9
:1009B00036ABC4E93223FCEEC87B17EE903A94EDD7
:1009C0001A7B039AB5EEC07B93421CBF012384F8C7
:1009D0006030F1EE10FA40F3B580012384F8603006
:1009E0009DED007BB4EEC7BBF1EE10FA40F1BD8087
:1009F0009DED047B3BEE07EBA9E09FED4FABB0EE26
:100A00004ACB77E7B5EEC08BF1EE10FA8FD539EE11
:100A1000000B94ED3C7BB4EEC07BF1EE10FA2CD4CD
:100A2000B0EE407B94ED3A6BB4EEC76BF1EE10FA8A
:100A300026DCB0EE476B86EE0D8BBCEEC88BB8EEB5
:100A4000488B012D2DEE088B8CD1B4F8E030022BB1
:100A500019D8FCEEC97BB8EE677B04EBC30282EDCC
:100A6000207B82ED268B04EB0312013382ED2CCB2D
:100A700082ED2EABA4F8E03074E7B0EE4EBBD1E7C8
:100A8000B0EE4EBBD7E794ED2A7B94EDAF6A38EE1B
:100A9000477BB7EEC66AB0EEC77BB4EEC67BF1EE1D
:100AA00010FA28DB94ED287B38EE477BB0EEC77B4D
:100AB000B4EEC76BF1EE10FA1DDD94ED320B94ED40
:100AC000307B3AEE400B3CEE477B20EE000BA7EE6E
:100AD000070B25F0D1F894EDB07AB7EEC77AB4EEF3
:100AE000C70BF1EE10FA06D5FCEEC97B84F87850FE
:100AF000B8EE678B36E794F87830012B7FF432AF8D
:100B0000002384F878302DE79A9999999999A93F0B
:100B10007B14AE47E17A843F343333333333C33FFE
:100B2000333333333333C33F111111111111B13F3B
:100B3000CD3B7F669EA0F63F000000000000000055
:100B4000A8EE073494F86030002B7FF449AF88EEAC
:100B50000D7BBCEEC77BB8EE477B27EE0D7B84EDAB
:100B600016EB84ED127B012044E69DED00EBEEE7F1
:100B700090ED1A6BB5EEC06B90ED124BF1EE10FAE2
:100B800090EDAA5BB0EE467BDFBF84EE057BBCEE4A
:100B9000C77BB8EE477B27EE057BB7EEC77B90EDB2
:100BA0003C5BB7EEC74AB4EEC54BF1EE10FAC8BFD6
:100BB000B7EEC57B90ED3A5BB7EEC74AB4EEC54BD6
:100BC000F1EE10FA48BFB7EEC57BB7EEC75AD0F8C2
:100BD000743230B580ED125B93ED005AD0EDAC7AF3
:100BE000B4EEC75AF1EE675AF1EE10FA4FF0000179
:100BF000B0F8F83075FEA77A013B8AB2934205D867
:100C0000442202FB030303F5907311E000EB82041E
:100C1000D4ED445A77EEA55AF4EEC75AF1EE10FA25
:100C200001F10101E9DB442303FB020202F59073A9
:100C3000B5EEC06BF1EE10FAC0F8743205DC93ED3E
:100C4000007AB7EEC77A80ED127B5A6803F138015B
:100C500042609A6803F124048260DA68C2601A690B
:100C6000026100F138025D690C334561DD680C30CA
:100C7000C5601D69A342056151F8045B42F8045B3D
:100C8000F1D1012030BD10B590B078B10022084CF0
:100C90004021084B2270C4F8C802074A684624F075
:100CA000B7FF6846D4F8C8329847204610B010BD48
:100CB000C027083470F60734E8EE073400280CBF6C
:100CC0004FF0FF300120704730B580ED000A0C680E
:100CD00044604C6884608C68C460C96802F1240474
:100CE000016100F1380115680C32456152F8085C69
:100CF0000C30C56052F8045CA242056153F8045BF5
:100D000041F8045BEFD130BD2DE9F04F2DED068B9E
:100D10000D46B0EE409BB0EE418B1E460446C9B076
:100D2000002800F085819FEDC6AB80ED12AB00205E
:100D3000C9494FF00008C4E91601C4E9A601C4E995
:100D4000AA01C649DFF84893C4F8B0124FF07E51AB
:100D5000C4F8B4124FF07C51C4E91A890FF2E829A3
:100D6000D9E90089C4E91C89C4E9A4894FF00008C5
:100D7000C4F8B812BA49DFF81C93C4F8BC124FF09B
:100D80007F510023C4E9A88901274FF00008C4F867
:100D9000C012691EDFF8009388B20428C4E9A08954
:100DA0000FF2AC29D9E9008984F86030C4E9A2893E
:100DB000A4F8E03084F87830A4F8787214D90523C8
:100DC0004FF48071A74A08A824F022FFD4F8C83253
:100DD00008A8984784F85070204649B0BDEC068BAF
:100DE000BDE8F04FFFF7C4BE96ED007AB7EEC77AC4
:100DF000B4EEC70BF1EE10FA12DDD4F8C8329A48FF
:100E0000984796ED007AB7EEC77A8DED009B8DED91
:100E1000027B964A4FF4807108A824F0F9FED5E7CA
:100E20004FF0440808FB05F806EB080919ED117AA4
:100E3000B7EEC77AB4EEC71BF1EE10FA45D4B3464D
:100E400037469946284601384DD11046914600272D
:100E5000A5F1020E01F1010CBCF1010C75D184ED7C
:100E60003A9B84ED3C8B21F04041A4F8F85004F506
:100E700088730131013940F0BF80002704F1FC0A7A
:100E800004F5907906EB070B09EB0700442259465D
:100E900020F04BFE4437DBF80030B8454AF8043BFD
:100EA000F0D16B1E9BB2002D03F1010314BF1A4653
:100EB0000122C4F8749204F5B271013A40F0A180A5
:100EC000012384F85030237086E7D4F8C83268488C
:100ED000984799ED007AB7EEC77A8DED008B8DEDCE
:100EE000027B644A96E7BA469AED007ADAED117A07
:100EF000B4EEE77AF1EE10FA09F1010307F14407C5
:100F000021DBD4F8C8225C480793904797ED007A1C
:100F1000B7EEC77A8DED047B079B584A02939AED92
:100F2000007AB7EEC77A4B468DED007B4FF48071A7
:100F300008A824F06DFED4F8C83208A89847012309
:100F400084F8503048E799467DE7BE45CA4607F128
:100F50000102F9EC017A1CD999ED007AB4EEE77A36
:100F6000F1EE10FA15D8D4F8C832454807929847E0
:100F700099ED007AB7EEC77A8DED047B079A3B4670
:100F800002929AED007AB7EEC77A3E4A8DED007B69
:100F9000CCE75B4693ED007AB4EEE77AF1EE10FA17
:100FA0000BF1440B06DA93ED117AB4EEE77AF1EE29
:100FB00010FA1FD8D4F8C8223348079390479BED06
:100FC000007AB7EEC77A8DED047B079B4FF48071F2
:100FD00093ED007AB7EEC77A8DED027B9AED007A39
:100FE000B7EEC77A3B468DED007B284A08A824F06F
:100FF0000FFEA0E717462FE750F8042B43F8042B09
:1010000038E7D4F8743291ED006A93ED007AB7EEC8
:10101000C66AB7EEC77A36EE4A6B37EE4A7BB4EE55
:10102000C76BF1EE10FA48BFC4F87412443144E7BC
:101030004FF0FF3049B0BDEC068BBDE8F08F00BF2C
:10104000000000000088B3409A9999999999B93F96
:101050000000000000A06E400000F03F0000484289
:1010600000002F43F8EE07343CEF0734C3EF07349A
:1010700021F00734A9F0073406F107346AF1073488
:10108000C2F1073431F207349BF20734F2F207342D
:101090000000F0BF000008400000244030B50546C5
:1010A00014468DB052B9D0F8C8321D489847D5F8CB
:1010B000C8321C48984720460DB030BD93ED042B34
:1010C00093ED021B93ED000B0AAA08A906A800F0F5
:1010D0002FF8DDE90823CDE90223DDE90A23CDE974
:1010E0000423012398420446CDE90033DFD1694649
:1010F0002846FFF755FB0128044603D0D5F8C8322F
:101100000948D7E795F86030012BD4D12846FFF77E
:101110002FFD01280446CED0D5F8C8320348C9E7D0
:1011200078F30734D9F3073402F4073436F407347C
:10113000B5EEC00BF1EE10FA1FB5B0EE417B1346D1
:1011400009D4B5EEC01BF1EE10FA04D4B5EEC02BF5
:10115000F1EE10FA0DD58DED022B8DED007B53ECE9
:10116000102B454820F0C0F84FF0FF3005B05DF877
:1011700004FB9FED336BB4EEC60BF1EE10FA09DC05
:10118000B4EEC61BF1EE10FA04DCB4EEC62BF1EEA1
:1011900010FA07DD8DED022B8DED007B53EC102B4B
:1011A0003648DFE728B181B1AAB93549354B0A463F
:1011B00007E069B933490A463248002B304B08BF73
:1011C0000346314820F090F8CEE72D492D4AF3E749
:1011D0002C492B4AF0E79FED1C6B9FED1D5B21EE28
:1011E000066BB3EE004BA0EE056B9FED1B5BA2EE12
:1011F000046BA6EE054B9FED1A6B80ED004B26EEBF
:10120000416BBBEE0A4B9FED181BA0EE046B21EE69
:10121000471B9FED174BB2EE047BA0EE041BA2EE22
:10122000046BA2EE471B26EE056B21EE051B81ED3C
:10123000006B012082ED001B98E700BFAFF3008038
:101240000000000000E06F400000000000A06340CC
:101250000000000000804740000000000000703FD8
:101260000000000000805540000000000080594050
:101270000000000000005C406BF40734A9F4073460
:101280004B2B0734492B0734E9F4073400000000E6
:101290002DE9F04106469846736D0F4610460699B3
:1012A00023B9C8F800700860BDE8F081204D5B00EC
:1012B000B5FBF3F59542F4D2B2FBF5F407EE902AB4
:1012C00004FB0552B8EE677A07EE902ADFED196A43
:1012D000F8EE677A67EEA67AB4EEE77AF1EE10FAE6
:1012E000DFD5521B0A60013207EE902AF8EE677ACA
:1012F00087EE270AB7EEC00A22F016FB9FED0A7BA5
:1013000020EE070BBCEEC00B10EE103A3B441F461C
:10131000C8F80030F36CBB4294BFC8F80030C8F87E
:101320000070C1E7AFF30080000000000088D340E8
:1013300040420F003333733F07EE901A9FED287A37
:10134000F8EE677A70B587EE871A2DED028B08EEFE
:10135000102AB7EEC11AB2EE040B05461C46069ED3
:1013600022F062FCB8EE487B27EE007BFCEEC77BE8
:1013700017EE902A696CB8EE677A914216D900236D
:101380002360C6ED007A6B6CDFED166A07EE903ACB
:10139000F8EE677A67EEA67AB4EE677AF1EE10FAA5
:1013A000C8BF1A463260BDEC028B70BD07EE901AC2
:1013B000F8EE677A87EE270A3160B7EEC00A22F0AE
:1013C000B3FA9FED057B20EE070BBCEEC00B84ED5E
:1013D000000AE8E7AFF30080000000000088D34077
:1013E00000409C4648E17A3F10B590B068B10022B9
:1013F000074C4021074B2270A065074A684624F03D
:1014000007FC6846A36D9847204610B010BD00BF8A
:10141000902A083476F6073433F5073400280CBFD9
:101420004FF0FF300120704738220A2330B5C0E961
:10143000042364222D237821C0E9062340F2DC53E3
:1014400041F27074C0E9081342F6E063C0E90A4350
:101450000BA5D5E90045052348F2E8010365002303
:10146000C0E910310121C0E90C4507A5D5E90045C7
:10147000C0E91212C0E90E45436530BDAFF30080EC
:1014800000000040E17A943F000000E04D62703FB0
:1014900010B5044620B1FFF7C7FF0120207010BD32
:1014A0004FF0FF30FBE72DE9F04F0F461546984609
:1014B000044689B0002800F03B810378012B1CD141
:1014C00002230370D4F85490B9F1000F19D09C4B4B
:1014D0004FEA4902B3FBF2F3A66CBE4213D2626C30
:1014E000AA4210D9B5FBF3F203FB12535BB1C4E976
:1014F0000156012009B0BDE8F08F022BE2D0002098
:10150000F8E70123E8E70DF1140A394604AB2A464F
:101510002046CDF800A0FFF70FFFDDE904B1D4F8B5
:1015200010C0B6EE005B07EE90CAB8EE676A07EE31
:10153000908AB8EEE77BB7EEC66A37EE057B86EE9B
:10154000070B236DB7EEC00B98450ED3ACEB08002C
:10155000E36980EAE072A2EBE0729A4259D9236A09
:101560009A422CBFE36AA36A54E0F0EE007AB4EE2C
:10157000E70AF1EE10FAE9D4626C91422BD201290C
:101580000B4638BF012307EE903AF8EEE77A67EE94
:10159000807AFDEEE77A17EE903A93420EDCC4EDC6
:1015A000017A07AB00932046D4E9012106ABFFF78F
:1015B0006FFE069BA360079B63609AE707EE902A85
:1015C000F8EEE76A07EE901AB8EE677AC6EE877A09
:1015D00080EE270A6260F7EE007AB4EEE70AF1EED9
:1015E00010FADEDDB7EEC00A22F09EF9B3EE047BFE
:1015F00020EE070B9FED507B20EE070BBDEEC00BDE
:1016000010EE103AE26C5B449342D4BFA360A26038
:10161000C7E7636AD4F814E0A26903930EEB0C03E6
:10162000434500FB02F24CD2DDED037A9FED457A93
:10163000F8EEE77A67EE877A07EE102AF1EE676A2E
:10164000B8EEC77AB4EEE67AF1EE10FA04D5FDEE04
:10165000E77A17EE903A5A42002A57D05E454AD1AF
:10166000656CA94236D3002A45DA01FB000007EE7B
:10167000900AB8EEE76B07EE901A94ED0E5BB8EEA9
:10168000E77BA6EE057BBDEEC77B17EE102A236C29
:10169000C4F808B09A42B8BF1A46AA42D4BF6260E2
:1016A00065602046CDF800A004ABD4E90121FFF726
:1016B000EFFD049B059DA360234B6560C3F860901C
:1016C00017E7ACEB0E0CC44520DD039B9A42A8BF84
:1016D0001A46C1E7002AC8DB01FB000007EE900AAA
:1016E000B8EEE76B07EE901A94ED0C5BB8EEE77B73
:1016F000A5EE067BC7E793445E4504DCE36C5E46DB
:101700009B45A8BF1E46C4E90116CAE70E4B1B6ED7
:1017100099450BD02A4639462046CDF800A004ABA7
:10172000B9F1000FC3D1FFF707FEC2E7A760C3E717
:101730004FF0FF30DEE600BF0000000000408F40A9
:1017400040420F009A99593F902A083481F0004195
:1017500002E000BF83F0004330B54FEA41044FEA96
:10176000430594EA050F08BF90EA020F1FBF54EA31
:10177000000C55EA020C7FEA645C7FEA655C00F0CD
:10178000E2804FEA5454D4EB5555B8BF6D420CDD9E
:101790002C4480EA020281EA030382EA000083EA21
:1017A000010180EA020281EA0303362D88BF30BDC1
:1017B00011F0004F4FEA01314FF4801C4CEA113117
:1017C00002D0404261EB410113F0004F4FEA033376
:1017D0004CEA133302D0524263EB430394EA050F01
:1017E00000F0A780A4F10104D5F1200E0DDB02FA70
:1017F0000EFC22FA05F2801841F1000103FA0EF204
:10180000801843FA05F359410EE0A5F120050EF1C9
:10181000200E012A03FA0EFC28BF4CF0020C43FAFA
:1018200005F3C01851EBE37101F0004507D54FF007
:10183000000EDCF1000C7EEB00006EEB0101B1F557
:10184000801F1BD3B1F5001F0CD349085FEA30009D
:101850004FEA3C0C04F101044FEA445212F5800FA8
:1018600080F09A80BCF1004F08BF5FEA500C50F145
:10187000000041EB045141EA050130BD5FEA4C0C28
:10188000404141EB0101013C28BFB1F5801FE9D285
:1018900091F0000F04BF01460020B1FA81F308BFA8
:1018A0002033A3F10B03B3F120020CDA0C3208DD74
:1018B00002F1140CC2F10C0201FA0CF021FA02F14F
:1018C0000CE002F11402D8BFC2F1200C01FA02F1BF
:1018D00020FA0CFCDCBF41EA0C019040E41AA2BFE4
:1018E00001EB0451294330BD6FEA04041F3C1CDAAC
:1018F0000C340EDC04F11404C4F1200220FA04F0CC
:1019000001FA02F340EA030021FA04F345EA030175
:1019100030BDC4F10C04C4F1200220FA02F001FA37
:1019200004F340EA0300294630BD21FA04F02946B9
:1019300030BD94F0000F83F4801306BF81F4801152
:101940000134013D4EE77FEA645C18BF7FEA655CC5
:1019500029D094EA050F08BF90EA020F05D054EA97
:10196000000C04BF1946104630BD91EA030F1EBF9C
:101970000021002030BD5FEA545C05D140004941A0
:1019800028BF41F0004130BD14F580043CBF01F593
:10199000801130BD01F0004545F0FE4141F4700179
:1019A0004FF0000030BD7FEA645C1ABF1946104654
:1019B0007FEA655C1CBF0B46024650EA013406BF55
:1019C00052EA033591EA030F41F4002130BD00BF14
:1019D00090F0000F04BF0021704730B54FF48064D1
:1019E00004F132044FF000054FF0000150E700BF52
:1019F00090F0000F04BF0021704730B54FF48064B1
:101A000004F1320410F0004548BF40424FF000019D
:101A10003EE700BF42004FEAE2014FEA31014FEAE0
:101A200002701FBF12F07F4393F07F4F81F060512F
:101A3000704732F07F4208BF704793F07F4F04BF7A
:101A400041F40021704730B54FF4607401F0004557
:101A500021F000411CE700BF50EA010208BF7047B7
:101A600030B54FF000050AE050EA010208BF7047A8
:101A700030B511F0004502D5404261EB41014FF411
:101A8000806404F132045FEA915C3FF4D8AE4FF019
:101A900003025FEADC0C18BF03325FEADC0C18BFFC
:101AA000033202EBDC02C2F1200300FA03FC20FA4D
:101AB00002F001FA03FE40EA0E0021FA02F114449A
:101AC000BDE600BF7BB972B90029BEBF00204FF050
:101AD000004106E008BF00281CBF6FF000414FF036
:101AE000FF3000F0C9B9ADF1080C6DE904CE002952
:101AF00009DB002B1ADB00F04DF8DDF804E0DDE92E
:101B0000022304B07047404261EB4101002B1BDB14
:101B100000F040F8DDF804E0DDE9022304B04042C3
:101B200061EB4101524263EB43037047524263EB66
:101B3000430300F02FF8DDF804E0DDE9022304B0F0
:101B4000404261EB41017047524263EB430300F0B6
:101B500021F8DDF804E0DDE9022304B0524263EB32
:101B60004303704753B94AB9002908BF00281CBF76
:101B70004FF0FF314FF0FF3000F07EB9ADF1080CAF
:101B80006DE904CE00F006F8DDF804E0DDE902239B
:101B900004B070472DE9F04F099D0C46002B4DD144
:101BA0008A420F4684469646B2FA82F360D94BB118
:101BB00002FA03FEC3F120029F4000FA03FC20FA60
:101BC00002F217434FEA1E461FFA8EF44FEA1C42F8
:101BD000B7FBF6F106FB117701FB04F042EA07427E
:101BE000904208D91EEB020201F1FF3702D2904267
:101BF00000F22D813946121A1FFA8CFCB2FBF6F066
:101C000006FB102200FB04F44CEA024C644508D9A0
:101C10001EEB0C0C00F1FF3202D2644500F21A8177
:101C2000104640EA0140ACEB040C002125B12CFA2F
:101C300003F30022C5E90032BDE8F08F8B4205D9DD
:101C40000DB1C5E9000100210846F5E7B3FA83F1BB
:101C500000294DD1A342C0F0F280904280F0EF8085
:101C6000064623460846002DE6D0C5E90063E3E7B3
:101C7000002B40F0A2808A1A4FEA1E471FFA8EF608
:101C80000121B2FBF7F407FB14204FEA1C4242EAA1
:101C9000004206FB04F090420FD91EEB020204F151
:101CA000FF382CBF4FF001094FF00009904203D9D3
:101CB000B9F1000F00F0C8804446121A1FFA8CFCDC
:101CC000B2FBF7F007FB102200FB06F64CEA024CD1
:101CD000664508D91EEB0C0C00F1FF3202D26645B6
:101CE00000F2BB801046ACEB060C40EA04409DE7D6
:101CF000C1F120068B4004FA01FE22FA06F720FA11
:101D000006FCF4408A401F434EEA0C0300FA01FE31
:101D10004FEA17484FEA13491FFA87FCB4FBF8F063
:101D200008FB104449EA044400FB0CF9A1450ED914
:101D30003C1900F1FF3A2CBF4FF0010B4FF0000BA4
:101D4000A14503D9BBF1000F00F093805046A4EBEE
:101D500009041FFA83F9B4FBF8F308FB134403FBEF
:101D60000CFC49EA0444A44506D93C1903F1FF38A8
:101D700001D2A4457AD8434643EA0040A4EB0C04C0
:101D8000A0FB02984445CC46434602D306D1CE453B
:101D900004D20138B9EB020C68EB07035DB1BEEB6E
:101DA0000C0264EB030404FA06F622FA01F3CC40B9
:101DB0001E43C5E9006400213EE702FA03FEC3F1B9
:101DC000200104FA03F200FA03FCCC404FEA1E475C
:101DD00020FA01F11FFA8EF6B4FBF7F00A4307FB75
:101DE0001044110C41EA044100FB06F48C420ED968
:101DF0001EEB010100F1FF382CBF4FF001094FF03D
:101E000000098C4202D9B9F1000F2CD04046091BC1
:101E100092B2B1FBF7F407FB141142EA014204FB52
:101E200006F1914207D91EEB020204F1FF3801D2FC
:101E3000914215D84446521A44EA004121E7861AD5
:101E400064EB030301200EE7023C724435E70239DC
:101E50007244D0E6F4440238E3E6F444023842E740
:101E6000023C7244E7E702387144D0E7023B3C444D
:101E700082E702383C446AE7704700BF044B82B0F7
:101E8000C3F84C0AD3F84C320193019B02B070475F
:101E900000800256044B82B0C3F8600AD3F8603267
:101EA0000193019B02B070470080025630B5ADF53A
:101EB0001B7D4022002168461FF0B0FB98220021C4
:101EC00010A81FF0ABFB4FF4C872002136A81FF01A
:101ED000A5FB012012F002FA012003F0CBF8012447
:101EE000002319227D210225CDE91D32CDE92514DB
:101EF0000822E121CDE91A53CDE92153CDE923236D
:101F0000CDE92932CDE92B31CDE92F53CDE931236C
:101F10001093062310A8CDE91F44CDE92745CDE94C
:101F20002D45CDE934331C95339108F02FF800B1DD
:101F3000FEE74FF440337F22CDE900234FF040739A
:101F400002934FF08053CDE90C344FF00053CDE9AC
:101F50000E344FF48013CDE90804CDE90A05CDE92C
:101F60000330CDE905000790684608F011FC00B188
:101F7000FEE7084B002261934FF44003CDE936237E
:101F8000054B36A8629308F081FF00B1FEE70DF51E
:101F90001B7D30BD14000003140400032DE9F04341
:101FA0009BB003F043FB02AB014601AA4FF0FF30A8
:101FB00003F044FB0024DDE9011220B2013403F0F8
:101FC000A9FAC32CF7D1FFF771FF1CF00FFC102307
:101FD000A64C0225C4F86C3AD4F86C220127129260
:101FE000129AC4F85C3AD4F85C324FF007081193A7
:101FF000119B60239E4815A91593CDE91657189596
:10200000CDF8648006F0CEFA4FF4E13399489A4A4D
:102010000C21C0E900230023C0E90431C0E90233E8
:1020200083614FF40043C3610EF058FF024600B1D4
:10203000FEE74FF00040DFF89492FFF72BFFC4F863
:10204000200AC9F820023846FFF718FF2846FFF794
:1020500015FF0420FFF712FF0820FFF70FFF4FF4D2
:102060008053C4F8543AD4F8543215A81393139BF0
:10207000824BCDE91622159307F0F2FB804B15A891
:10208000159307F0EDFB7F4B15A8159307F0E8FBC0
:102090007D4B15A8159307F0E3FB01F047FF7B4844
:1020A0007B4B036011F024FC064628B1A421794B38
:1020B000794A7A481EF06AFA11F070FC11F092FC2D
:1020C000042011F051FC11F083FC15F095FA15F085
:1020D0009DFA40F2011369463046ADF8003012F027
:1020E0008FFC304612F000FC4FF40073C4F8583AED
:1020F000D4F85832159503253846149315A9149B26
:10210000169507F0D5FA15A9082007F0D1FA15A9F8
:10211000092007F0CDFA15A90A2007F0C9FA15A978
:102120000B2007F0C5FA15A9042007F0C1FA4046B4
:1021300015A907F0BDFA2946594807F00DFB2946B5
:10214000584807F009FB2946574807F005FB294680
:10215000564807F001FB2946554807F0FDFA294685
:10216000544807F0F9FA2946534807F0F5FA29468A
:10217000524807F0F1FA2946514807F0EDFA29468E
:10218000504807F0E9FA29464F4807F0E5FA294692
:10219000042007F0E1FA4FF48063C4F8583AD4F809
:1021A00058221592159AC4F8183AC9F818324FF007
:1021B000FF33C4F8843AD4F884221092109AC4F8F9
:1021C0008C3AD4F88C220F920F9AC4F8903AD4F833
:1021D00090220E920E9AC4F8943AD4F894220D925A
:1021E0000D9AC4F8983AD4F898220C920C9AC4F834
:1021F0009C3AD4F89C220B920B9AC4F8A03AD4F8DB
:10220000A0220A920A9AC4F8A43AD4F8A422099205
:10221000099AC4F8A83AD4F8A8220892089AC4F8EF
:10222000AC3AD4F8AC220792079AC4F8B43AD4F87E
:10223000B4220692069AC4F8B83AD4F8B8220592A5
:10224000059AC4F8BC3AD4F8BC220492049AC4F8A3
:10225000883AD4F888320393039B01F0AFFB3046F1
:102260001BF066FC1BB0BDE8F08300BF0080025687
:1022700000100256603B0834001000520031025238
:10228000803102520032025280320252543B0834F2
:1022900000400358D61E0734846202346862023458
:1022A0000400003003000030020000300A0000305B
:1022B000050000301C0000201D000020060000303A
:1022C000070000300800003018000010009002568F
:1022D0007FB53B4A136843F400531360394B1A6AC5
:1022E00022F440321A621A6A22F040721A6203F033
:1022F000E2F8354B5A6912F4003211D1BFF34F8F17
:10230000BFF36F8FC3F85022BFF34F8FBFF36F8FB0
:102310005A6942F400325A61BFF34F8FBFF36F8F97
:10232000274A136843F480531360A2F5734253693C
:1023300013F4803328D1C2F88430BFF34F8F43F6B3
:10234000E074D2F88030C3F3C900C3F34E335B01AD
:1023500000F1010E01464EF001E003EA040646EAF0
:102360008175C2F8605201390FF007C8203B13F1A4
:10237000200FEDD1BFF34F8F536943F48033536186
:10238000BFF34F8FBFF36F8F104B4FF480620293F8
:102390000F4B1049019301230F48009300231BF0BA
:1023A000D3FA30B94FF4A2710C4B0D4A0D481EF010
:1023B000EDF81BF013FC40F247110B4B084AF5E710
:1023C00000E001E00080025600ED00E0F43A08343D
:1023D000F42A0834736202349D1F00347862023498
:1023E0008F62023468620234D61E0734FEE700B5FD
:1023F000E5B04FF4C872002168461FF00FF90023C2
:102400001022CDE900234FF400134FF08051329396
:1024100003236846CDE9221308F038FD48B90023AC
:102420000822CDE90023282324906846259308F04C
:102430002DFD65B05DF804FB08B54FF48060FFF733
:102440001DFD4FF08040FFF725FD044BC3F8200A27
:1024500003F58053C3F8200208BD00BF0080025678
:1024600000BEFEE708B502680C4B9A4215D14FF446
:10247000801060220A4BC3F8200A03F58053C3F88A
:102480002002FFF707FD074B83F8412302229A60E1
:10249000502283F8422304229A6008BD004003586A
:1024A0000080025600E100E0027D436802B11B6833
:1024B000806818447047036810B5002BB8BF00242B
:1024C0000A68B8BF04600C68002CBCBF00240C6014
:1024D0000468B4F5A07F24BF40F23F1404600C6888
:1024E000EF2C84BFEF240C600068984204D1086888
:1024F000801A18BF012010BD0120FCE7F8B5054681
:102500000C46002601F12007D5ED007AFDEEE77AB2
:10251000C4ED007AD5ED017AFDEEE77A214617EE9B
:10252000903A204641F8043FFFF7C5FF0834BC420B
:1025300046EA000605F10805E6D13046F8BDD0EDC3
:10254000027A90ED037AF6EE006A67EEE67A27EEFD
:10255000667AB1EE676AF1EE476A2DE9F041C1EDA6
:10256000007A2DED068B06460C4681ED017A81ED51
:10257000026A81ED037A81ED046AC1ED056AC1ED5D
:10258000067AC1ED076A88460F4601F1200596EDEF
:1025900004AAB7EECAAAB0EE4A0B21F0F9F9B0EEE0
:1025A000408BB0EE4A0B21F03FFA97ED016A97EDB0
:1025B000009AB7EEC66AB7EEC99A26EE407BA8EE3F
:1025C000097B28EE068BA9EE008BB7EEC77BB7EE32
:1025D000C88B87ED007A87ED018A0837BD42D6D1D6
:1025E000A5EB040EAEF1080E4FEADE0E0EF1010E61
:1025F0004EF001E096ED007AD8ED007A77EE877A1A
:10260000C8ED007AD8ED017A96ED017A77EE877AF7
:1026100008F1080848ED017A0FF015C0BDEC068BF3
:10262000BDE8F08110B54942044600681AF0D6FFB3
:1026300070B1D4F8B43004EB8302D2F8AC00D4F813
:10264000A820013393FBF2F102FB1133C4F8B4303C
:1026500010BD000010B54FF0FF310446406D1AF078
:10266000BDFF012806D040F2E3410D4B0D4A0E4854
:102670001DF08CFFD4F8C030606DB3FA83F35B09B2
:10268000C4F8C03000231A4619461AF003FE012888
:1026900004D040F2E641024B024AE8E710BD00BF19
:1026A0009D62023415680234AB62023410B54FF0FB
:1026B000FF310446406D1AF091FF012806D040F228
:1026C000D7410D4B0D4A0E481DF060FFD4F8BC30C9
:1026D000606DB3FA83F35B09C4F8BC3000231A467B
:1026E00019461AF0D7FD012804D040F2DA41024B16
:1026F000024AE8E710BD00BF9D620234FB67023466
:10270000AB62023410B5094C4FF0FF3120681AF06B
:1027100065FF012806D040F21B51054B054A0648CB
:102720001DF034FF02F092FCEEE700BFF0DC0B344A
:102730009D6202343D680234AB62023438B504460F
:10274000007811F02DFE63680546834204D018B16D
:10275000A3680BB1E0689847656038BD08B54FF4D1
:10276000BC71024B024A03481DF010FFB5620234EF
:10277000EF670234AB6202342DE9F0432DED0A8B92
:1027800090ED0CCAB7EECCCAADF5AF5D85B0B0EE3A
:102790004C0B044690ED08AA90ED0ABA21F0F8F827
:1027A000B0EE408BB0EE4C0B21F03EF994ED0B9A5D
:1027B00094ED096AE8460DF56A650DF5EA6EB7EE27
:1027C000CAAAB7EECBBAB7EEC99AB7EEC66AA9469F
:1027D00076464746B6EE005B4FF4EA7C94ED0D3A40
:1027E00094ED0E4AB7EEC33AB7EEC44A33EE453B1A
:1027F000B0EE4A7B23EE0B3B34EE454BA3EE087B59
:1028000024EE094BA4EE407BF7EEC72BB0EE467BDF
:10281000A3EE007BA8EE047BFDEEE24AB7EEC77B99
:1028200014EE902AFDEEC77A012A1146B8BF0121A5
:1028300017EE903AB1F59F7FA8BF4FF49F71012B1F
:102840001846B8BF0120EE28A8BFEE201B1A18BFFB
:1028500001238A4218BF0123BCF1010C48F8041B74
:102860004EF8040B49F8043B04F10804B6D10024E7
:1028700055F8043B43B96FF0FF03012256F82410CA
:1028800057F8240011F0B6FC0134B4F5EA7FEFD11B
:102890000DF5AF5D05B0BDEC0A8BBDE8F08300001F
:1028A00038B50D4602210446021D08461AF0D2FC36
:1028B000206050B10021022004F158021AF0CAFC35
:1028C000606528B920681AF089FF4FF0FF300DE0ED
:1028D0000223C4F8A8302B684BB1C4F8AC306B6845
:1028E0002BB10020C4E92D00C4F8B03038BD40F24F
:1028F000BD11024B024A03481DF048FECB62023470
:1029000051670234AB62023408B500231A461946F7
:102910001AF0C0FC012806D040F2DF11024B034A36
:1029200003481DF033FE08BD9D6202344C6802343A
:10293000AB6202342DE9F04FBE4E97B006F5005859
:10294000BD4B4FF0FF3118681AF048FE012806D041
:102950004FF48A61B94BBA4ABA481DF017FE4FF0DE
:10296000FF31D8F83C0C1AF039FE012804D040F2AF
:102970005341B24BB24AEFE7F768D8F83C0C7B1CE6
:10298000F360002319461A461AF084FC0128014618
:1029900004D040F25741A94BA94ADDE74FF461301A
:1029A0003269A94B00FB0239A848FFF73BFE0546F8
:1029B000142000FB076006A92030FFF7C0FD0EA918
:1029C00006A8FFF79BFD002800F005814FF4D832E0
:1029D000002128461EF022FE9DED067AFDEEC77A04
:1029E00017EE902A0E9B93426FD007EE903AF8EEC6
:1029F000E77ADFED976A77EEC77A9DED0A6A67EEB0
:102A0000A67A36EE476AC7EE866AF8FE667AFDEE6B
:102A1000E77A17EE902ADDED076AFDEEE67A17EE0B
:102A2000901A0F9C8C4252D007EE904AF8EEE77A4B
:102A30009FED876A77EEE67ADDED0B5A67EE867AD0
:102A400075EEE65A87EEA56AF8FE467AFDEEE77A5D
:102A500017EE900A4FF4107C02EB42010CFB0011C0
:102A60002944B2B307EE903A9DED0A6AF8EEE77A90
:102A7000DFED775A76EE677A67EEA57A36EE476A2B
:102A800087EE867AF8FE477AFDEEE77A17EE903AFF
:102A900090B307EE104ADDED0B7AB8EEC77A9FEDE2
:102AA0006C6A37EEC77A27EE067A77EEE66AC7EEEB
:102AB000267AF8FE677AFDEEE77A17EE904A63BB56
:102AC00040F29531634B644A46E70022A3E70020B9
:102AD000C0E7129BB3F59F7F0CD907EE903AF8EE52
:102AE000E77A9FED5B6A77EEC77A67EE867A9DEDAF
:102AF0000A6AC3E7C023CBE7139CEE2C40F2868121
:102B000007EE904AB8EEE77ADFED517A37EE667A53
:102B100027EE277ADDED0B7AC7E7002C40F07A81AB
:102B200040F296314D4B4C4A16E707EE104AB8EE8C
:102B3000477AB4EEE77AF1EE10FA04D94FF46671F1
:102B4000474B454A08E7002A04DA40F29931454BE1
:102B5000414A01E7002804DA40F29A31424B3E4AEA
:102B6000FAE672B11A4407EE102AB8EE477AB4EECC
:102B7000677AF1EE10FA04D04FF467713B4B364A96
:102B8000EAE670B1204407EE100AB8EE477AB4EED8
:102B9000677AF1EE10FA04D040F29E31344B2E4A9F
:102BA000DAE66FF4107003EB430202444FF4107046
:102BB00000FB04220A44954204D94FF469712D4B5D
:102BC000254AC9E605F5D830824207D340F2A5313F
:102BD000294B214AC0E6C02329461C46DDE90ECA1E
:102BE0004FF4707B139A0CEB4C000BFB0A00A2EB2A
:102BF0000A0A129A4844B2EB0C0C04D140F2AD31EF
:102C00001E4B154AA8E6BAF1000F04D140F2AE31CE
:102C10001B4B114AA0E66FF470720CEB4C0E0BFBD1
:102C20000AEE96448644F1452ED94FF46D71154B4A
:102C3000094A91E6C0AE0B349CDC0B349D62023431
:102C40008A680234AB620234E0881534F44D0834EB
:102C500000004043D66202345C680234E46202340D
:102C600009630234216302342F6302343D6302346A
:102C70005E6302348163023497630234D6630234A4
:102C8000E3630234F163023409F56139CE4504D3BC
:102C900040F2B531684B694A5EE6DFF8CCE1CDE938
:102CA00001A3CDF814E04FF0030E4FF410735A4611
:102CB000CDE9034ECDF800C01CF042F83368002B7C
:102CC0001CDD05F01F021A44BFF34F8FEB43AC1815
:102CD0002344203A5B09203203F1010ED8BF4FF0A4
:102CE000010E29464EF001E05548C0F85C12203133
:102CF0000FF005C8BFF34F8FBFF36F8F4FF0FF3159
:102D0000D8F8E40C1AF06AFC012804D040F2114112
:102D10004C4B4D4A20E629460020326801F0BEFFA8
:102D2000044620B140F21341484B474A14E602F0F2
:102D30009FF90546464813F0C7FE02F099F9454B46
:102D4000451B1868FFF7E0FD4FF0FF31D8F83C0C49
:102D50001AF044FC012804D040F21A41394B3A4A97
:102D6000FAE54FF46A6101FB076170685C3101F0BC
:102D7000C1F806EB8707234622462146D8F83C0CCB
:102D80007D611AF087FA012804D040F21E412D4BD4
:102D90002D4AE1E5B268002A1BDD736803F01F01CC
:102DA0001144BFF34F8FDA435D182A44203952098A
:102DB000203102F1010ED8BF86464EF001E0204CD2
:102DC000C4F85C3220330FF005C8BFF34F8FBFF358
:102DD0006F8F0023D8F8E40C1A4619461AF05AFAF5
:102DE000012804D040F22441164B174AB4E50023D1
:102DF00019481A46194600681AF04CFA01283FF49F
:102E00009FAD40F25C410F4B144AA5E5002B3FF407
:102E100057AEC02407EE103ADFED117AB8EE477ACC
:102E2000B4EEE77AF1EE10FA7FF67FAE40F297311A
:102E30000C4B024A90E500BF076402345C68023420
:102E400000ED00E09D620234786802344964023487
:102E50008CF60734F44D083448DC0B348A680234AD
:102E600000004043F3620234F43B083400000000E9
:102E70002DE9F04F2DED088BA5B001F053FE04466F
:102E800001F04CFED0E9022304F138009B1A0993AB
:102E9000FFF70AFBD4E910239B1AB3F5007F0A90D1
:102EA0000B9306D040F21E317E4B7F4A7F481DF0C7
:102EB0006DFB2046FFF7F8FAD4E902239B1AB3F51D
:102EC000005F0C900D9304D040F22131784B764A8C
:102ED000ECE704F17000FFF7E7FAD4E91E239B1A30
:102EE000B3F5C07F0E900F9304D04FF44971714B2E
:102EF0006D4ADBE704F1A800FFF7D6FAD4E92C23EA
:102F00009B1AB3F5C05F1090119304D040F22731A3
:102F1000694B654ACAE7694912A814F053FE054691
:102F200020B140F22B31664B5F4ABFE7654F4FF04F
:102F3000FF3107F50058D8F83C0C1AF04FFB012878
:102F400004D040F27241604B604AAFE701F018FFD5
:102F5000044601F011FFD0E9022320469B1A3B6092
:102F6000FFF7A2FAD4E902239B1AB3F56A6F7860DF
:102F7000BB6004D04FF45771554B564A96E72B4629
:102F80002A462946D8F83C0C1AF084F9012804D0C6
:102F900040F279414C4B4D4A88E702F069F82946E6
:102FA00004464D48FFF73EFB20B940F27E414B4BB3
:102FB000464A7BE79FED4A9A294602F033F8B0EE85
:102FC00049AAF0EE499AF0EE49AA02F051F8DFF86A
:102FD000089101904FF0FF31D9F854001AF0FEFA31
:102FE000012804D04FF4F471374B3E4A5EE7D9F81C
:102FF000B83009EB8302D2F8AC50D9F8A8200133DD
:1030000093FBF2F102FB1133C9F8B83025B940F255
:103010008A41354B2D4A49E74FF0FF31D8F83C0C37
:103020001AF0DCFA012804D040F28C41264B274AE2
:103030003CE72E4BD8F83C0C1B6803F001033B61C6
:1030400000231A4619461AF025F9012804D040F247
:103050008F411D4B1D4A29E702F00AF829460290CC
:10306000099A002001F0E8FC20B14FF44E71204B8A
:10307000204A1BE7114813F027FD0C9B0421059300
:103080000A9B22AA06930E9B05A80793109B089300
:1030900012AB14F0FDFD064670B340F23D31084B13
:1030A000144A03E768640234A0670234AB62023456
:1030B000B3640234046502344F650234BCF607344D
:1030C000A0650234C0AE0B349D620234B367023493
:1030D000B96502348D670234D4FE0C34F7650234CE
:1030E000000000007C67023403660234A07F0E34C7
:1030F000496402346A670234DDF88CA0B64BBAF139
:10310000030FD3461D46A8BF4FF0030B9FEDB3BA84
:103110009FEDAF8B0093B34500F3B7800B9A002A65
:103120001CDD0A9B03F01F001044BFF34F8FDA43EE
:103130001D182A4420385209203002F1010ED8BF50
:103140004FF0010E4EF001E0A549C1F85C3220338A
:103150000FF005C8BFF34F8FBFF36F8F0D9A002A92
:103160001CDD0C9B03F01F001044BFF34F8FDA43AC
:103170001D182A4420385209203002F1010ED8BF10
:103180004FF0010E4EF001E09549C1F85C3220335A
:103190000FF005C8BFF34F8FBFF36F8F0F9A002A50
:1031A0001CDD0E9B03F01F001044BFF34F8FDA436A
:1031B0001D182A4420385209203002F1010ED8BFD0
:1031C0004FF0010E4EF001E08549C1F85C3220332A
:1031D0000FF005C8BFF34F8FBFF36F8F119A002A0E
:1031E0001CDD109B03F01F001044BFF34F8FDA4328
:1031F0001D182A4420385209203002F1010ED8BF90
:103200004FF0010E4EF001E07549C1F85C322033F9
:103210000FF005C8BFF34F8FBFF36F8F01F028FF8A
:103220000546D9F80000FFF76FFB0026DFF8CC91C8
:103230005E45C0F2AE800026DFF8C4915E45C0F264
:10324000B8804FF461313A69664B01FB0233BFF33A
:103250004F8F4FF4E15E4EF001E0614AC2F85C32FC
:1032600020330FF005C8BFF34F8FBFF36F8F5E4E53
:103270004FF0FF31706D1AF0B1F9012800F0C480F1
:1032800040F2A141594B5A4A10E61C227243229B3C
:103290004FF0060E1344D3ED007A67EE8B7AC3ED40
:1032A000007AD3ED017A67EE8B7AC3ED017AD3ED24
:1032B000027A67EE8B7AC3ED027AD3ED037A67EE7A
:1032C0008B7A4EF001E0C3ED037A9B69D3ED007A6F
:1032D00067EE8B7AC3ED007AD3ED017A67EE8B7AD5
:1032E000083343ED017A0FF00FC84FF0FF31D8F8E3
:1032F0003C0C03921AF072F90128039A04D040F2B0
:1033000043313A4B3B4AD1E5229B3B48134493ED72
:10331000026AD3ED036A26EE2A5A26EEAA7AB7EE9F
:10332000C55AB7EEC77AB0EE453BB4EE666AA7EE73
:10333000483BA5EE087BF1EE10FAD3ED004A93ED81
:10334000014AB7EEC33BB7EEC77B76FE266A76EE40
:10335000A66A002374EE835A37EE047AC5ED0CAAF0
:10336000C5ED085A85ED097AC5ED0A6AC5ED0B6A07
:103370001A461946D0F83C0C19F08CFF012805F1CB
:10338000140504D040F24631184B1A4A8EE5013636
:10339000C1E60023D9F800001A46194619F07AFF51
:1033A000012804D040F29741104B114A7EE50136C6
:1033B0003EE74FF0FF31D9F800001AF00FF901286D
:1033C00004D040F29B41094B094A6FE5013635E7CD
:1033D0000000000000000000C0AE0B340000A0435D
:1033E00000ED00E0E0881534ECF607349D6202340D
:1033F000B36702346A670234C0CE0B349CDC0B34F2
:1034000048DC0B340000803D029BB1EE0C8AEB1AC5
:1034100007EE903AF8EE677AF4EE008AEAEE087A60
:1034200027EEA8AAFDEECA7A5346C6ED2B7ABAF16A
:10343000000F03D0FDEEC97A17EE903A019AB2EE72
:103440000E7A121B07EE902AF8EE677AE9EE877A79
:103450005FED149A67EEA99AC6F8B030229B4FF040
:10346000FF311B69D8F83C0CC6ED2A9AC6F8C4B0E7
:10347000C6F8C8301AF0B2F80128029004D04FF410
:103480009561404B404A11E50026DFF808913F4C1A
:10349000229DFE60A9F14C0A5E450EDB00233C48EC
:1034A0001A461946D0F83C0C19F0F4FE012853D006
:1034B00040F2B341334B344AF8E4DAED017AF8EEE6
:1034C000677A4FF0060EE9EE087A029B27EEA89A7B
:1034D000C4F8CC302B694EF001E0C4F8E0302B6822
:1034E0000AF1040AC4F8D0306B68C4F8D430AB6871
:1034F000C4F8D830EB68C4F8DC30D4F8E830D5F83C
:1035000018C003930023039A0CEBC30102EBC30220
:1035100003C9013382E803000FF00BC8009B04F1DC
:10352000EC0C03F1200EBEE80F00ACE80F00DEF853
:1035300000304946CCF8003004F580704FF46A62E0
:103540001EF0F3FA009B01361433009304F6D464A2
:1035500009F56A691C359FE700230C4C1A46194689
:10356000606D19F097FE012804D040F2B541054B7B
:10357000054A9BE4002320681A46194619F08AFE82
:10358000019C22E59D620234B3670234ECF60734F5
:10359000C0CE0B341CAF0B342DE9F04383690546D4
:1035A0000C4695B0002B7FD0D1ED017AFDEEE77A85
:1035B00017EE900AD1ED027AFDEEE77A17EE901A37
:1035C000D4ED047AFDEEE77A17EE903AD4ED037A63
:1035D000FDEEE77A17EE902A013202EBD272013348
:1035E000521003EBD37352425B1086185B42801A71
:1035F0000296CE18C91A04900C9102A803A903964A
:10360000FEF759FF0CA904A8FEF755FFDDE90201FA
:103610004FF0FF23049A00930C9B121A5B1A10F0D0
:10362000D3FC0026DFF89C80254FE269012E02EBD7
:10363000C602D2ED007AFDEEE77ACDED027AD2ED48
:10364000017ACCBFC146B946FDEEE77A03A902A8CC
:10365000CDED037A0136FEF72EFFDDE902014B4680
:10366000022210F0C7FD062EDFD104A904F12000CC
:10367000FEF765FF0CA904A8FEF740FF0CAF064655
:1036800090B9DFF84080013614AB06F00302CDF8A4
:10369000008003EBC202796852E9082357F8080B4F
:1036A00010F034FC042EEED16B692BB1204615B01E
:1036B000BDE8F043FFF760B815B0BDE8F08300BF88
:1036C000FF0000FF0000FFFF2DE9F04F2DED048B00
:1036D0000021ADF5355D87B0A34E16AB0AAA0846AA
:1036E000C6F8E820C6F8BC3F06F5805222ABC2F807
:1036F000903E10F011FE014608B1FFF72FF89B4AEB
:1037000002ABC3E901021870DE6010F005FE00286C
:10371000F3D104469FED929B954BDFF89882CDE95B
:1037200007038DF8180009964FF0FF31306819F043
:1037300055FF012806D04FF4A0618E4B8E4A8F486A
:103740001CF024FF02A8FEF7F9FF06A8FEF7F6FF1B
:103750004FF0FF31706D19F041FF012804D040F2A5
:103760000651844B844AEAE72EAF42F6A0428449D0
:1037700038461EF0DAF90023706D1A46194619F022
:1037800089FD0128054604D040F20951794B7A4A57
:10379000D5E73C6101F06CFC814672B64FF41630FF
:1037A000D8F80030DFF810A2294600FB03A01CF077
:1037B0002FF8054620B140F2C241724B724ABEE773
:1037C00062B6724CF0234FF4A0720146009010F0E4
:1037D000C3FC04F1380704F1200CBCE80F000FC74C
:1037E0009CE8030087E8030001F096FC0746C4E963
:1037F00008051AF041FE3F1A63EB0303C4E90A739C
:1038000001F036FCA36C226E20639B1AB3F57A7F1D
:1038100006D3902204F1380104F150001DF0E4FEBB
:10382000D4E91C23D4E91601801A61EB0301FEF7E9
:1038300013F9D4E91A3241EC180BD4E91401C01A77
:1038400061EB0201FEF708F928EE098B41EC160B3B
:1038500088EE067B2EACB7EEC78BD4ED007A9FEDD9
:103860004C7AC7EE278A10F057F900210222084649
:10387000484B00F089FB10F04FF9B7EEC87AC188C9
:1038800002228DED007B444B002000F07DFB10F008
:1038900043F9C1880222414B01EB4101002000F0B5
:1038A00073FB10F039F90222C1886368914000204F
:1038B00000933B4B00F068FB10F02EF9A368C18821
:1038C000022201EB810100200093364B00F05CFBEB
:1038D00010F022F9B7EEE87AC18802228DED007B64
:1038E0000020314BC1EBC10100F04EFB27460DF12A
:1038F000DC0BE3699D421FDB4FF41632D8F8003031
:1039000002FB03A3BFF34F8F4FF4965E4EF001E02E
:10391000264AC2F8683220330FF005C8BFF34F8F34
:10392000BFF36F8F72B601201BF07AFF60B140F2D7
:10393000CC41144B1E4A02E759463846FFF72CFE8D
:1039400001350BF6D46BD4E762B6D8F80030C3F17A
:103950000103C8F8003001F08BFBA0EB0904E3E69B
:103960000000000000005940ECF60734AD2600349A
:10397000552600349D6202342F680234AB62023453
:1039800094F7073412660234D8670234C0D7103473
:1039900000007A4420660234296602343366023419
:1039A0003E660234486602345266023400ED00E09E
:1039B000C1670234A0D81034C0D81034F0B5974D88
:1039C00093B097481DF090FCD5F8FC30954C43F02F
:1039D00080734FF4E12200212046C5F8FC301DF031
:1039E0001DFEBFF34F8F4FF4615E00234EF001E0E8
:1039F000E218C5F8702220330FF007C0BFF34F8FD5
:103A0000BFF36F8F884D4FF49622002128461DF09A
:103A100005FEBFF34F8F4FF4165E00234EF001E01A
:103A20007E4AE918C2F8701220330FF007C0BFF3C6
:103A30004F8FBFF36F8F04214FF4613000238DF857
:103A400030107A497A4A0968CDE90A3200FB01440C
:103A50008DF81C30CDE90D43764B012508931E23CC
:103A6000754906AF1191ADF8243039460EAB0AAC5A
:103A700004A80F928DF840500692049405931BF011
:103A80002BFE064630B140F242516C4B6C4A6D48F9
:103A90001CF07CFD28460FF0F5FF304610F098FB37
:103AA000694E6A4810F030F84FF0FF3010F024F8FB
:103AB00096E8030087E8030039466548FEF7F0FE04
:103AC00020B14FF4AC615D4B624AE0E7D6E90201F8
:103AD00084E8030021466048FEF7E2FE044620B178
:103AE00040F26251554B5B4AD1E70146E0225B4808
:103AF0001DF094FD01F0B2F921462846584A19F00C
:103B0000A9FB584B186020B940F26B51564B514AF3
:103B1000BDE7564E21463246284619F09BFB371F1B
:103B200046F8040C20B940F26D51514B494AAEE7BA
:103B3000214603204F4A19F08DFB4F4B186020B9E6
:103B400040F26F514D4B434AA1E7214603204C4AB6
:103B500019F080FB4B4B186020B940F271514A4B71
:103B60003C4A94E7284606F1540119F035FC786583
:103B700020B940F27351454B364A88E728464449FC
:103B800019F02AFC434CC4F83C0C20B940F27551A2
:103B9000414B304A7BE70120404919F01DFCC4F835
:103BA000900C20B940F277513D4B2A4A6FE7012033
:103BB0003C4919F011FCC4F8E40C20B940F27951E9
:103BC000394B244A63E70021164801F017FA374BB6
:103BD0004FF400620293364B364901931C2336485A
:103BE0000093002319F0B0FE20B940F28151334B0D
:103BF000184A4CE7324B4FF420520293314B324972
:103C000001931A2331480093002319F09DFE0028E8
:103C10005ED140F28451294B0E4A38E700ED00E0B6
:103C20005D660234E0881534C0D81034342408347A
:103C30004001F000C07F0E34C0301334706602348F
:103C40005D670234AB6202344060023440240834C1
:103C5000D4FE0C349C680234F44D0834C0D71034C0
:103C6000A0DC0B34F0DC0B3479660234F0F6073458
:103C7000816602344CDC0B349CDC0B348D660234E0
:103C8000F8DB0B3448DC0B34986602349F66023450
:103C900000DB0B34C0CE0B34A966023454DB0B348A
:103CA000BA660234A8DB0B34D066023474FE0C34DE
:103CB00074DE0C34E6660234712E0034786202340D
:103CC00014DE0C34143E0C34E9660234C936003478
:103CD0001A4B4FF400620293194B1A4901931E23A9
:103CE00019480093002319F02FFE00B31D26174D2D
:103CF000174C00234FF400621649174802950194AF
:103D0000009619F021FE68B1603504F500540023D7
:103D10004FF40062CDE900640E490F48029519F096
:103D200013FE48B940F28B510C4B0D4AAFE640F2FE
:103D300087510A4B0A4AAAE613B0F0BDB43D0C34D1
:103D4000B41D0C34EC66023405270034F41C0C342A
:103D5000F4DC0B34F0660234352900347862023426
:103D60009C68023401282DE9F347064649D14FF4F7
:103D7000613A454FDFF840813D68D8F80040013591
:103D800005F0010555EA55B50134DFF8309104F02E
:103D9000010454EA54B414F095F9314600220AFBA8
:103DA000049303F0B3FE014630B14FF40571374B75
:103DB000374A38481CF0EAFB0AFB05901BF028FD47
:103DC00020B14FF40171344B344AF2E71BF028FD67
:103DD00020B140F20621304B304AEAE71BF02CFDBF
:103DE00020B140F209212C4B2C4AE2E72C4A3D60DD
:103DF0001368C8F8004001331360002002B0BDE82A
:103E0000F0870228F9D1274D00212846FEF70AFC49
:103E100004460028F1D014F055F92346002231461B
:103E200003F074FE20B140F22721184B1E4AC0E770
:103E30001B4B1E4A1B680190013B13601AF008FEE1
:103E40000346A0B1686D01A919F0DCFA012804D07D
:103E500040F2F711164B174AABE7019B002BCCD071
:103E60004FF0E0234FF08052C3F8042DC5E702461F
:103E70000146686D19F00EFA0128BED040F2FB1120
:103E80000B4B0C4A95E700BF342408341266023409
:103E900037670234AB62023470660234276702343B
:103EA000A47F0E34D4FE0C3408670234A07F0E3495
:103EB0009D620234F7660234C0881534E0881534F8
:103EC000012807B510D100230193094B01A91868F7
:103ED00019F098FA012807D1019B2BB14FF0E0238C
:103EE0004FF08052C3F8042D002003B05DF804FBAE
:103EF000F0DC0B3400B54FF4EA7EDFED0B7A4EF0C8
:103F000001E0D0ED006A86EEA77A81ED007AD0ED6F
:103F1000016A86EEA77A083081ED017A08310FF048
:103F200011C05DF804FB00BF000040431FB5154BF6
:103F30007C2101AA02A802930CF09AFB0346E0B987
:103F4000019A02F4C031B1F5C03F17D042F4C0323B
:103F50007C2102A801920CF0A7FB68B97C2101AA80
:103F600002A80CF085FB30B9019B03F4C033B3F514
:103F7000C03F03D0FEE7FEE7FEE7FEE705B05DF8D1
:103F800004FB00BF0090005608B4F3B504460D468C
:103F9000164607AB094F53F8042B302138460193DE
:103FA0001DF080FA33463A46294620460FF064FF5A
:103FB00002B0BDE8F04001B0704700BFE0901C3493
:103FC0007047FEE7FEE7FEE7FEE708B514F07AF873
:103FD000BDE8084002F018B908B514F073F8BDE860
:103FE000084001F0DBBF000001480FF0A6BC00BF95
:103FF000543B083401480FF0B3BC00BF543B0834B5
:1040000008B50549054813F013FBBDE8084004490D
:10401000044813F00DBB00BF0038203400002034EA
:10402000808120340080203408B50549054813F00C
:10403000FFFABDE808400449044813F0F9BA00BF8C
:10404000003820340020203400A2203400A0203486
:104050000149024813F0ECBA00342134001E213427
:104060000149024813F0E4BA00582034000020341B
:104070000149024813F0DCBA00F0203400A02034DB
:104080000149024813F0D4BA00A020340050203473
:104090000149024813F0CCBA009020340048203483
:1040A0000149024813F0C4BA00482034000020340B
:1040B0000149024813F0BCBA00802034004020348B
:1040C0000149024813F0B4BA004020340000203403
:1040D0000149024813F0ACBA00A820340070203423
:1040E0000149024813F0A4BA00702034003820348B
:1040F0000149024813F09CBA00902034006020343B
:104100000149024813F094BA006020340030203492
:104110000149024813F08CBA0022223400F82134FD
:104120000149024813F084BA00A82034000020346A
:104130000149024813F07CBA00B021340020213438
:104140000149024813F074BA002021340090203451
:104150000149024813F06CBA008021340000213478
:104160000149024813F064BA000021340080203471
:104170000149024813F05CBA00B0253400402534F0
:104180000149024813F054BA00C021340000203421
:104190000149024813F04CBA000023340080213456
:1041A00030B5104D104C85B02946204613F040FA2A
:1041B0000021084611F090FC01230222CDE90232D1
:1041C0000A4B0B4A01930B4B0B4900930B480C4BCA
:1041D00012F0B8F92946204605B0BDE8304013F08A
:1041E00051BA00BF005820340040203438B60234A1
:1041F00040B602343CB6023408B6023478B6023413
:1042000028B6023430B5104D104C85B029462046F2
:1042100013F00EFA0021084611F05EFC0123022281
:10422000CDE902320A4B0B4A01930B4B0B49009329
:104230000B480C4B12F086F92946204605B0BDE824
:10424000304013F01FBA00BF0016203400002034A5
:1042500080B5023488B5023484B5023450B50234D6
:10426000C0B5023470B5023430B5104D104C85B075
:104270002946204613F0DCF90021084611F02CFCF9
:1042800006230722CDE902320A4B0B4A01930B4B5E
:104290000B4900930B480C4B12F054F92946204669
:1042A00005B0BDE8304013F0EDB900BF00B02034D8
:1042B00000582034C8B40234D0B40234CCB4023430
:1042C00098B4023408B50234B8B4023430B5104D95
:1042D000104C85B02946204613F0AAF90021084663
:1042E00011F0FAFB06230722CDE902320A4B0B4AF2
:1042F00001930B4B0B4900930B480C4B12F022F926
:104300002946204605B0BDE8304013F0BBB900BFD8
:10431000005020340000203410B4023418B40234A9
:1043200014B40234E0B3023450B4023400B40234A2
:1043300030B5104D104C85B02946204613F078F961
:104340000021084611F0C8FB08230922CDE90232FA
:104350000A4B0B4A01930B4B0B4900930B480C4B38
:1043600012F0F0F82946204605B0BDE8304013F0C1
:1043700089B900BF00F0203400A0203458B30234C3
:1043800060B302345CB3023428B3023498B302340D
:1043900048B3023430B5104D104C85B02946204644
:1043A00013F046F90021084611F096FB042305227C
:1043B000CDE902320A4B0B4A01930B4B0B49009398
:1043C0000B480C4B12F0BEF82946204605B0BDE85C
:1043D000304013F057B900BF0048203400002034AB
:1043E000A0B20234A8B20234A4B2023470B20234D1
:1043F000E0B2023490B2023430B5104D104C85B0AA
:104400002946204613F014F90021084611F064FBF8
:1044100002230322CDE902320A4B0B4A01930B4BD4
:104420000B4900930B480C4B12F08CF829462046A0
:1044300005B0BDE8304013F025B900BF009020342E
:1044400000482034E8B10234F0B10234ECB1023457
:10445000B8B1023428B20234D8B1023430B5104DAC
:10446000104C85B02946204613F0E2F8002108469A
:1044700011F032FB02230322CDE902320A4B0B4A30
:1044800001930B4B0B4900930B480C4B12F05AF85D
:104490002946204605B0BDE8304013F0F3B800BF10
:1044A000004020340000203430B1023438B10234EE
:1044B00034B1023400B1023470B1023420B102349C
:1044C00030B5104D104C85B02946204613F0B0F899
:1044D0000021084611F000FB06230722CDE9023235
:1044E0000A4B0B4A01930B4B0B4900930B480C4BA7
:1044F00012F028F82946204605B0BDE8304013F0F8
:10450000C1B800BF008020340040203478B00234AD
:1045100080B002347CB0023448B00234B8B0023407
:1045200068B0023430B5104D104C85B02946204695
:1045300013F07EF80021084611F0CEFA0623072278
:10454000CDE902320A4B0B4A01930B4B0B49009306
:104550000B480C4B11F0F6FF2946204605B0BDE88C
:10456000304013F08FB800BF0038203400002034F2
:10457000C0AF0234C8AF0234C4AF023490AF0234CB
:1045800000B00234B0AF023430B5104D104C85B0DD
:104590002946204613F04CF80021084611F09CFAF9
:1045A00001230422CDE902320A4B0B4A01930B4B43
:1045B0000B4900930B480C4B11F0C4FF29462046D1
:1045C00005B0BDE8304013F05DB800BF00A820344E
:1045D0000070203408AF023410AF02340CAF023444
:1045E000D8AE023448AF0234F8AE023430B5104DC4
:1045F000104C85B02946204613F01AF800210846D1
:1046000011F06AFA06230722CDE902320A4B0B4A5F
:1046100001930B4B0B4900930B480C4B11F092FF8D
:104620002946204605B0BDE8304013F02BB800BF46
:10463000003020340000203450AE023458AE023432
:1046400054AE023420AE023490AE023440AE023496
:1046500030B5104D104C85B02946204612F0E8FFC9
:104660000021084611F038FA04230822CDE902326D
:104670000A4B0B4A01930B4B0B4900930B480C4B15
:1046800011F060FF2946204605B0BDE8304012F029
:10469000F9BF00BF009020340060203498AD023490
:1046A000A0AD02349CAD023468AD0234D8AD023402
:1046B00088AD023430B5104D104C85B029462046E7
:1046C00012F0B6FF0021084611F006FA0623072271
:1046D000CDE902320A4B0B4A01930B4B0B49009375
:1046E0000B480C4B11F02EFF2946204605B0BDE8C3
:1046F000304012F0C7BF00BF002A20340000203431
:10470000E0AC0234E8AC0234E4AC0234B0AC0234C5
:1047100020AD0234D0AC023430B5104D104C85B011
:104720002946204612F084FF0021084611F0D4F9F2
:1047300000230422CDE902320A4B0B4A01930B4BB2
:104740000B4900930B480C4B11F0FCFE2946204608
:1047500005B0BDE8304012F095BF00BF00502134D5
:1047600000A8203428AC023430AC02342CAC023423
:10477000F8AB023468AC023418AC023430B5104DDA
:10478000104C85B02946204612F052FF0021084601
:1047900011F0A2F908230922CDE902320A4B0B4A93
:1047A00001930B4B0B4900930B480C4B11F0CAFEC5
:1047B0002946204605B0BDE8304012F063BF00BF77
:1047C000009020340000203470AB023478AB023407
:1047D00074AB023440AB0234B0AB023460AB023491
:1047E00030B5104D104C85B02946204612F020FF00
:1047F0000021084611F070F904230522CDE90232A8
:104800000A4B0B4A01930B4B0B4900930B480C4B83
:1048100011F098FE2946204605B0BDE8304012F060
:1048200031BF00BF00B0213400202134B8AA0234C7
:10483000C0AA0234BCAA023488AA0234F8AA0234FC
:10484000A8AA023430B5104D104C85B02946204638
:1048500012F0EEFE0021084611F03EF9082309226D
:10486000CDE902320A4B0B4A01930B4B0B490093E3
:104870000B480C4B11F066FE2946204605B0BDE8FA
:10488000304012F0FFBE00BF008020340000203412
:1048900000AA023408AA023404AA0234D0A90234BD
:1048A00040AA0234F0A9023430B5104D104C85B046
:1048B0002946204612F0BCFE0021084611F00CF9F2
:1048C00004230522CDE902320A4B0B4A01930B4B1C
:1048D0000B4900930B480C4B11F034FE294620463F
:1048E00005B0BDE8304012F0CDBE00BF00802134DD
:1048F0000000213448A9023450A902344CA90234E2
:1049000018A9023488A9023438A9023430B5104DF0
:10491000104C85B02946204612F08AFE0021084638
:1049200011F0DAF801230222CDE902320A4B0B4AD8
:1049300001930B4B0B4900930B480C4B11F002FEFB
:104940002946204605B0BDE8304012F09BBE00BFAE
:104950000020263400B0253490A8023498A80234F0
:1049600094A8023460A80234D0A8023480A802348B
:1049700030B5104D104C85B02946204612F058FE37
:104980000021084611F0A8F800230922CDE90232DF
:104990000A4B0B4A01930B4B0B4900930B480C4BF2
:1049A00011F0D0FD2946204605B0BDE8304012F098
:1049B00069BE00BF0040253400802334D8A70234EC
:1049C000E0A70234DCA70234A8A7023418A80234F6
:1049D000C8A7023430B5104D104C85B0294620468A
:1049E00012F026FE0021084611F076F80023092275
:1049F000CDE902320A4B0B4A01930B4B0B49009352
:104A00000B480C4B11F09EFD2946204605B0BDE831
:104A1000304012F037BE00BF008021340000203447
:104A200020A7023428A7023424A70234F0A60234B7
:104A300060A7023410A7023440B911F01F0007D15B
:104A4000B2F5404F06D3044B1960704703207047FE
:104A50000120704702207047F8AA1C3410B9024B9D
:104A60001868704700207047F8AA1C34032070476C
:104A70000020704700220F4B13B51A6011F0DAFACC
:104A80000D49A1F5CF5012F0CBFD11F0EBFA4FF428
:104A9000CF630A490A4801AA019312F03FFD044678
:104AA00020B10549A1F5CF5012F0ECFD204602B02F
:104AB00010BD00BF10911C34F8AA1C34F833043424
:104AC00018911C3413B511F0B5FA0D49A1F5CF506A
:104AD00012F0A6FD11F0C6FA0A4B002200930A4B11
:104AE0000A491B680A4812F053FD044620B10449E4
:104AF000A1F5CF5012F0C6FD204602B010BD00BF98
:104B0000F8AA1C3410911C34F8AA1C3418911C34D7
:104B10001034043400487047B0B60234004870477F
:104B200070A602340048704730A502340048704730
:104B30000884023430B5AFB0B422002101A81CF0C3
:104B40006DFD2A234FF46A728DF80430012304218D
:104B5000CDE90232CDE90D32CDE906220A92119259
:104B60004FF46A62CDE91221CDE91412104A114DB9
:104B7000114C0DEB010021921032CDE90433CDE947
:104B80000833CDE90F338DF830308DF85C301C934D
:104B90008DF8883027932C928DF8B4300B951694AD
:104BA00012F00AFC2946204612F06CFD2FB030BDF1
:104BB00070595F70A00E2034000020340149024873
:104BC00012F036BD60122034A00E20340149024894
:104BD00012F02EBD800420344002203401490248E6
:104BE00012F026BD00D022340040223430B50E4DE4
:104BF0000E4C85B02946204612F01AFD00210846C9
:104C000010F06AFF02230422CDE9013203230121BF
:104C1000074A0093074811F087FC2946204605B053
:104C2000BDE8304012F02EBD400220340000203498
:104C3000B48704342488043430B5104D104C85B04A
:104C40002946204612F0F4FC0021084610F044FFEB
:104C500008230922CDE902320A4B0B4A01930B4B80
:104C60000B4900930B480C4B11F06CFC2946204675
:104C700005B0BDE8304012F005BD00BF001025347E
:104C800000802434EC860434F4860434F086043442
:104C9000BC8604342C870434DC86043440B911F01B
:104CA0001F0007D1B2F5D83F06D3044B19607047F7
:104CB00003207047012070470220704710E21C3427
:104CC00010B9024B186870470020704710E21C347E
:104CD000032070470020704700220E4B13B51A6066
:104CE00011F0A8F90C490D4812F09AFC11F0BAF92C
:104CF00040F6C3530A49094801AA019312F00EFC79
:104D0000044618B10449054812F0BCFC204602B024
:104D100010BD00BFFCAA1C340CE21C3400AB1C34D8
:104D2000D8D4063413B511F085F90C490C4812F0AB
:104D300077FC11F097F90B4B002200930A4B0849BE
:104D40001B680A4812F024FC044618B103490448C1
:104D500012F098FC204602B010BD00BF0CE21C34DB
:104D600000AB1C34FCAA1C3410E21C34F0D4063412
:104D70000048704794880434004870473C860434E7
:104D800000487047A4850434004870470C6404341C
:104D900007EE901AF8EEE76A07EE902A9FED286A70
:104DA000B8EEE77ADFED275A86EE865AC7EE257A07
:104DB000B4EE675AF1EE10FA48BFF0EE457AB7EE5E
:104DC000005AF4EEC57AF1EE10FA08B505DA2021A2
:104DD0001D4B1E4A1E481BF0D9FB9FED1E5AF4EED8
:104DE000C57AF1EE10FA03D421211B4B174AF1E7E3
:104DF00027EE866A67EEA57AF4EEC66AF1EE10FA3F
:104E0000B4EEE77ACCBFFCEEC66AFCEEE66AF1EEE1
:104E100010FA16EE903ACCBFBCEEE77ABCEEC77A39
:104E20000131C91A17EE103A0132D21A4908520854
:104E3000C0ED006A80ED017A8160C26008BD00BFEC
:104E40000000A04300007043300C0734050D073408
:104E50003B0C073400008042490C0734F0B59DB08C
:104E60000DF1070013F020FA28B17F215A4B5B4A5D
:104E70005B481BF08BFB012409AE30468DF82440C3
:104E800013F06AFB18B18721534B544AF0E74FF4F3
:104E9000FA630B931E230225CDE905309DF80730F8
:104EA000CDE90300012B08BF3146079018BF002150
:104EB00003A8089513F086FA064618B19221464BCE
:104EC000464AD5E713F0FEF840F22F2C0F23CDE928
:104ED0001466042611A90746CDE91155CDE916C37C
:104EE000139600F05DFF18B161213E4B3E4ABFE7CB
:104EF0000523CDE9136511934FF40C7640F27F231F
:104F0000179011A93846CDE9156300F049FF18B193
:104F10006A21344B344AABE74FF4A071F0230326E7
:104F2000CDE91113DDE90312CDE91540139018A85E
:104F300014961796FFF72CFF204602AA11A913F02A
:104F4000C5F818B13A21274B284A91E7149A119BCA
:104F50005343029A934203D03B21254B234A87E7D0
:104F600060238022CDE91306CDE91123DDE9031288
:104F7000CDE915400DEB03001796FFF709FF284612
:104F800002AA11A913F0A2F818B14F21154B194A22
:104F90006EE7149A119B5343029A934203D0502117
:104FA000134B144A64E713F08DF84FF46042214626
:104FB000054602F03BFE18B172210A4B0E4A57E734
:104FC0000121284602F08AFE18B17421054B0A4AD5
:104FD0004EE71DB0F0BD00BF540C0734410D07343F
:104FE0003B0C0734126602342F0D0734180D0734BA
:104FF0006A0C0734F30C0734DD0C07340A4608B595
:105000000146012013F024F928B1A021024B034AE4
:1050100003481BF0BBFA08BD540C0734C70C073417
:105020003B0C07340A4608B50146022013F010F97C
:1050300028B1A821024B034A03481BF0A7FA08BD78
:10504000540C0734B60C07343B0C073408B513F086
:105050001BFA28B1B021034B034A04481BF096FA0F
:1050600008BD00BF540C0734A80C07343B0C0734B0
:1050700018F00CBE08B5EFF305832BB12721044BC4
:10508000044A05481BF082FABDE8084018F060BFEA
:10509000D61E0734690D07344A0D073400207047C7
:1050A000042213B5154B164CC3F8642AD3F86432A6
:1050B0000193019B134B23604FF0FF33E36005F036
:1050C000B5FD114BB0FBF3F00023013860602046C2
:1050D0002361A3600CF0ECF928B13E210B4B0C4A84
:1050E0000C481BF053FA20460CF020F818B141216F
:1050F000064B074AF4E702B010BD00BF008002561D
:10510000D4F41C3400080050A0860100126602345A
:105110005D0D07344A0D0734014B1B68586A704710
:10512000D4F41C34034B0360034B0B604FF48063D7
:105130001360704774F41C3474E41C34034B036034
:10514000034B0B6080231360704700BF14E41C34D2
:1051500014E21C34444B454A70B501209A60022584
:1051600000224349434E01F58054C1F8180AC4F89F
:105170001802C4F85802C3F8D820C3F8DC20C3F8DA
:10518000E020C3F8D800C3F8DC20C3F8E020C3F85F
:10519000D8500325C3F8DC20C3F8E020C3F8D8506A
:1051A0000425C3F8DC20C3F8E020C3F8D850052557
:1051B000C3F8DC20C3F8E020C3F8D8500625C3F8B4
:1051C000DC20C3F8E020C3F8D8500725C3F8DC2062
:1051D000C3F8E020C3F8D850C3F8DC20C3F8E020BF
:1051E000C1F8780AD1F878229A683261224AD56BE0
:1051F00045F48055D563D56B45F01005D563D26B6A
:10520000D1F8742242F40042C1F87422D1F8782215
:1052100042F01002C1F87822D1F87822D1F8782231
:1052200022F01002C1F878224FF44052C1F8202A2F
:10523000C4F820224022C1F8240AC4F82402C4F889
:105240006402C4F85C223269C4F87802D3F888207A
:1052500042F47002C3F88820084AD2F8883043F438
:105260007003C2F8883070BD00ED00E00004003427
:1052700000800256008000560048025600ED02E011
:105280007B4BF0B51A6A02F44012B2F5001F00F031
:10529000D18008D8002A39D0B2F5801F3CD0002236
:1052A000744B1A60F0BDB2F5401FF8D1D3F8C4209A
:1052B00002F04052B2F1805F36D0B2F1005F44D0CC
:1052C000002A52D1D3F8802012F0006402F0E041AD
:1052D00040F0B980D3F88400D3F88830C2F30B25AE
:1052E00020F07F400C46B4F1005FC3F3C266C2F306
:1052F0000551C3F3026300F0948000F29D80002CFE
:1053000047D0B4F1805F7CD0002249E09B6C5A4AC0
:10531000C3F3C113DA40C3E75B6C584A13F4007F50
:10532000574B08BF1A46BBE7D3F8902012F0006431
:1053300002F0E04140F08780D3F89400C2F30B25DF
:10534000D3F8983020F07F40CCE7D3F8A02012F0BB
:10535000006402F0E04176D1D3F8A400C2F30B253B
:10536000D3F8A83020F07F40BCE7D3F8B02012F08B
:10537000006402F0E04166D1D3F8B400C2F30B251B
:10538000D3F8B83020F07F40ACE70B460E46084615
:105390000D46374A976C384AC7F3C117FA403CBBF1
:1053A00007EE100AB8EEC76A07EE105A07EE902A09
:1053B000DFED346AB8EEC77AF8EEE77AA6EE267A21
:1053C00067EE877A07EE101AB8EEC77AC7EE876ADB
:1053D00007EE906AB8EEE77A07EE903AF8EEE77AD1
:1053E00027EE277AC6EE877AFCEEE77A17EE902A48
:1053F0001F4BD3F8C430C3F307430133B2FBF3F2BE
:105400004EE700241A4A1E4F526C12F4007F1B4ACA
:1054100008BF3A46C3E700231E4618461D461946F4
:10542000F0E70024184ABAE700231E4618461D4636
:105430001946F7E7144A33E7B4F1405F7FF464AFED
:105440000024124AABE7B1F1005FEDD006D8002985
:105450009BD0B1F1805FDED00022C9E7B1F1405F9F
:10546000FAD100231E4618461D461946E9E700BF3B
:1054700000800256382408340090D0030024F40041
:1054800000093D0000008033006CDC020080BB009E
:105490006DED81CF00B5FFF7F3FE054B5DF804EB32
:1054A00018689FEC100A9FE80E90FDEC81CF7447BE
:1054B00038240834704710B5032000F00DF8FFF7CA
:1054C000DFFE0F20FFF7EAFD044618B9FFF7F2FFF1
:1054D000204610BD0124FBE7C31E042B10B5044673
:1054E00003D9E6210948FCF7BBFF09492302CA6832
:1054F00003F4E06322F4E0621204120C134343F05D
:10550000BF6343F40033CB6010BD00BF730D07349D
:1055100000ED00E010F10C0F2DE9F04105460C46BE
:10552000174601DB031D03D1FF212648FCF798FF36
:10553000254BDE68C6F30226022E06D857B14FF47B
:1055400081712048FCF78CFF04E00123F21E934098
:10555000BB42F4D90F2CC6F1070804D8012303FA83
:1055600008F3A34204D840F203111648FCF778FF71
:10557000B8F1040F06F1040328BF4FF004084FF000
:10558000FF32062BA6F1030698BF002602FA08F8A0
:1055900024EA0803B24027EA0207B340002D43EA99
:1055A0000703ACBF05F16045084A4FEA0313DBB2BD
:1055B000ABBF05F5614505F00F0585F80033535580
:1055C000BDE8F081730D073400ED00E014ED00E05C
:1055D000002808DB01234109054A00F01F00834031
:1055E00042F82130704740F215110248FCF738BFED
:1055F00000E100E0730D073400280DDB01220949AA
:10560000430900F01F008240203341F82320BFF3FC
:105610004F8FBFF36F8F70474FF493710248FCF7C1
:105620001FBF00BF00E100E0730D0734024BD868D4
:10563000C0F30220704700BF00ED00E010F10C0F36
:10564000F8B504460D4617461E4601DB031D04D17E
:105650004FF4BC711948FCF703FFEB1E042B04D96F
:1056600040F279111548FCF7FBFE002CACBF04F1A9
:105670006044134B05F00701C1F10702ABBF04F50D
:10568000614404F00F0494F800331B5D081D042AE4
:1056900028BF04220628A1F103014FF0FF3098BF74
:1056A00000211B0900FA02F223FA01F4884024EADF
:1056B000020223EA00033A603360F8BD730D073439
:1056C00014ED00E0F8B51446036871BBD3F8042468
:1056D00022F4C01242EAC442C3F80424234B022C31
:1056E0001A6838D0032C39D0012C3AD142F040024C
:1056F0001A60FFF7BDFC4FF4003607461B4DA6406D
:10570000FFF7B6FCC01BB0F57A7F2DD8D5F89030E6
:1057100036EA0303F4D14FF488530020D5F88020F3
:10572000A3401343C5F88030F8BD0129D3F80428FD
:1057300006D122F4C01242EAC442C3F80428CDE7DD
:10574000520341BFD3F8042C22F4C01242EAC442EF
:10575000C3F8042CC2E742F48062C9E742F48042F5
:10576000C6E742F00402C3E70120DDE7006000580D
:10577000012930B54FF00205046810D18571D4F8C5
:1057800000190B43C4F80039C4F8C429D4F8F03325
:1057900043F4060343F02003C4F8F03330BD08445B
:1057A0004571D4F8001D0B43C4F8003DC4F8C42D66
:1057B000D4F8F03343F00643ECE770B415461E46C8
:1057C00099B9022301684371D1F800253243C1F829
:1057D0000025C1F8C455D1F8F03370BC43F406433A
:1057E00043F02003C1F8F033704770BCFFF7C0BF2F
:1057F000022383710368D3F8042842F00042C3F8FF
:105800000428D3F8002942F00802C3F800297047A1
:1058100069B90368D3F8042442F00042C3F80424B1
:10582000D3F8002542F00802C3F80025704701298B
:1058300001D1FFF7DDBF0368D3F8042C42F000422A
:10584000C3F8042CD3F8002D42F00802C3F8002D51
:1058500070470000184B10B55A69C9B242F4803243
:105860005A611A6942F001021A615A6942F480329F
:105870005A6100221A615A615C695C611C6944F0DA
:1058800001041C611A615C6944F480345C611C6928
:1058900044F001041C615C69044344F480345C619D
:1058A0001A615A61586901435961196941F001014E
:1058B00019611A6110BD00BF0070005810B5044690
:1058C000D8B103680E4A934208D002F17042934265
:1058D00004D04FF4A7710B48FCF7C2FD237913B92C
:1058E000204612F0FDFD0323002023710123607187
:1058F000A071E071A060237110BD0120FCE700BF22
:1059000000200058BB0D07342DE9F0410546FEB0DC
:105910000C464FF4FC72684654491CF006F91DB958
:1059200001207EB0BDE8F081002CF9D02B68504AF0
:10593000934208D002F17042934204D040F28B218E
:105940004C48FCF78DFD2368B3F5807F07D0B3F595
:10595000007F04D04FF423714648FCF781FD636853
:10596000013B012B04D940F28D214248FCF778FD20
:10597000A3683E2B04D940F28E213E48FCF770FD0F
:105980003D4B1A6822F001021A60616801291AD1A0
:10599000226842F404121A671A6842F001021A607F
:1059A000D3F8802042F0B04242F40412C3F88020C1
:1059B0002268B2F5807FD3F8842054D1012908D120
:1059C00042F01F0207E00229AAD1226842F4901295
:1059D000E1E742F4F8520026284DC3F884202B68F2
:1059E000254F23F002032B607E602B69012043F0DA
:1059F00001032B61FFF73EFB2E61D4F80880AB68F2
:105A00005DF8382023F4FE4343EA022343F02803E1
:105A1000AB60382108201602FFF71CFF1121E4209B
:105A2000FFF718FF0DEBC803D3F80480E3204FEA1B
:105A3000182146F48036FFF70DFF46F02806E320D4
:105A40005FFA88F1FFF706FFAE6023680020B3F528
:105A5000807F0CBF07230F237B602B6843F002037A
:105A60002B6068605DE742F4F852A9E750600234A9
:105A700000200058BB0D073400600058007000582B
:105A800070B50D461446064608B9012070BD002ABF
:105A9000FBD00368524A934208D002F1704293420D
:105AA00004D04FF444714F48FCF7DAFC022D04D9BE
:105AB00040F211314B48FCF7D3FC236833F44033F8
:105AC00004D040F212314748FCF7CAFC022D23688B
:105AD0001ED033F4403304D040F216314148FCF775
