:0200000470107A
:1000000053544D32000000000000000000000000CA
:1000100000000000000000000000000000000000E0
:1000200000000000000000000000000000000000D0
:1000300000000000000000000000000000000000C0
:1000400000000000000000000000000000000000B0
:1000500000000000000000000000000000000000A0
:1000600000000000F32807020003020020530800EC
:10007000092E023400000000FFFFFFFF0000000017
:100080000000000000000080A0010000000000004F
:100090000000000000000000000000000000000060
:1000A0005354FFFFA0010000B20ACBBB7FD41AAFAC
:1000B0003BDC8A82DB61E2400E739E402754749BD6
:1000C000EA51EE30276E820C91A671EB2FBFDD7BDB
:1000D000089A86D3BB23A4839191A5AD2F4A61C80A
:1000E000D5473A4F772941FFF067F06175B2DAAD35
:1000F00066C5173E8FE6D8DEBC00CF58A4424D5EE1
:10010000A562E633D5FE9FC22F474588CD361BD961
:100110003EAA7563B7C92163D07C55DA1780D742F0
:10012000256F726FF918280510DD1CA6844E98D42F
:10013000BB4E9FCFC603449EBFFF3CD72F022AE38E
:10014000EFE3FD9BD8F6FE49D1B14A67E8F97ADBC7
:10015000C3A2B8B1F3C674032533B07FDA1B2D7B7D
:10016000CC1B14E0768C407ACD52A057656764D3DF
:10017000C8523293E4A7D54E6B8ACB572480A7BED2
:10018000ED5ECBA3A1C0FEB7911430641C67C4D050
:100190008ED68A6FB4E4CE61AD342E2DFAC2548D62
:1001A0003533587EE685EC92F57BBF5B17C3A765B8
:1001B000496C3F2A4773629B906A90CD87DC8FCB56
:1001C000D741967BFDCFE2B1B515305DF36370800A
:1001D0004395BF01F1B33ABECD86D33907717B6930
:1001E0009ADB1FEC34693212D5D3628E451F8EDE46
:1001F000CC094A7A2B4CFECD4437697B7159078173
:10020000FB9DBA64428A44117DDBD13E0A1BD96949
:1002100033A402033115FB133D1A18FF855F8CF3DD
:10022000F1B2ABBC8D5E89DF72E69D15B7BBD760BE
:10023000313AF944A804F1C4BD57B10CB3D19225A9
:1002400000000000000000000000000000000000AE
:10025000000000000000000000000000000000009E
:10026000000000000000000000000000000000008E
:10027000000000000000000000000000000000007E
:10028000000000000000000000000000000000006E
:10029000000000000000000000000000000000005E
:1002A000000000000000000000000000000000004E
:1002B000000000000000000000000000000000003E
:1002C000000000000000000000000000000000002E
:1002D000000000000000000000000000000000001E
:1002E000000000000000000000000000000000000E
:1002F00000000000000000000000000000000000FE
:1003000000000000000000000000000000000000ED
:1003100000000000000000000000000000000000DD
:1003200000000000000000000000000000000000CD
:1003300000000000000000000000000000000000BD
:1003400000000000000000000000000000000000AD
:10035000000000000000000000000000000000009D
:10036000000000000000000000000000000000008D
:10037000000000000000000000000000000000007D
:10038000000000000000000000000000000000006D
:10039000000000000000000000000000000000005D
:1003A000000000000000000000000000000000004D
:1003B000000000000000000000000000000000003D
:1003C000000000000000000000000000000000002D
:1003D000000000000000000000000000000000001D
:1003E000000000000000000000000000000000000D
:1003F00000000000000000000000000000000000FD
:1004000000002034092E0234DD3F0034652E023412
:10041000DF3F0034E13F0034652E0234E33F003417
:1004200000000000000000000000000041E0013476
:10043000E53F003400000000D1DF0134FDDC013471
:10044000652E023400000000652E0234652E023451
:10045000652E0234652E0234652E0234652E023478
:10046000652E023400000000652E0234652E023431
:10047000652E0234ED230034652E023400000000A6
:10048000652E023400000000652E0234652E023411
:10049000652E0234652E0234652E0234652E023438
:1004A000652E0234652E0234652E0234652E023428
:1004B000652E0234652E0234652E0234652E023418
:1004C000652E0234652E0234652E0234652E023408
:1004D000652E0234652E0234652E0234652E0234F8
:1004E000652E023400000000652E0234652E0234B1
:1004F000652E0234652E0234652E0234E73F003447
:10050000F53F003400000000000000000000000083
:10051000652E023425670134652E0234652E0234BF
:10052000652E0234652E0234652E0234652E0234A7
:100530000DF40134652E0234652E0234652E02342A
:10054000652E02340540003411400034652E02341B
:10055000652E0234652E0234652E0234652E023477
:10056000652E0234652E0234652E0234652E023467
:10057000652E0234652E0234652E0234652E023457
:10058000652E0234652E0234652E0234652E023447
:10059000652E0234652E0234652E0234652E023437
:1005A000652E0234652E0234652E0234652E023427
:1005B000652E0234652E0234652E0234652E023417
:1005C000652E0234652E0234652E0234652E023407
:1005D000652E0234652E0234652E0234652E0234F7
:1005E000652E0234652E0234652E0234652E0234E7
:1005F000652E0234652E0234652E0234652E0234D7
:10060000652E0234652E0234652E0234652E0234C6
:10061000652E0234652E0234652E0234652E0234B6
:10062000652E0234652E0234652E0234652E0234A6
:10063000652E0234652E0234652E0234652E023496
:10064000652E0234652E0234652E0234652E023486
:10065000652E0234652E0234652E0234652E023476
:10066000652E0234652E0234652E0234652E023466
:10067000652E0234652E0234652E0234652E023456
:10068000652E0234652E0234652E0234652E023446
:10069000652E0234652E0234652E0234652E023436
:1006A000652E0234652E0234652E0234652E023426
:1006B000652E0234652E0234652E0234652E023416
:1006C000652E0234652E0234652E0234652E023406
:1006D000652E0234652E0234652E0234652E0234F6
:1006E000652E0234652E0234652E0234652E0234E6
:1006F000652E0234652E0234652E0234652E0234D6
:10070000652E0234D5EB0134652E0234652E023499
:10071000652E0234652E0234652E0234652E0234B5
:10072000652E0234652E0234652E0234652E0234A5
:10073000652E0234652E0234652E0234652E023495
:1007400000000000652E0234652E02340000000017
:1007500010B5054C237833B9044B13B10448AFF3FB
:1007600000800123237010BD605508340000000094
:100770008888023408B5034B1BB103490348AFF323
:10078000008008BD000000006455083488880234E9
:10079000034613F8012B002AFBD1181A01387047C1
:1007A00090EDAD6A30B52DED108B90EDA87BB5EED8
:1007B000C06A87B08DED007BF1EE10FA90EDA47B5E
:1007C000044691ED015A91ED004A91ED02FB91ED45
:1007D000048B90ED123B90EDAADB90ED16BB8DEDF6
:1007E000047B90EDA6EB09DCD0F8C832D4489847DA
:1007F0004FF0FF3007B0BDEC108B30BDB8EE455B5D
:100800009FEDC17BB8EE444B25EE077BB4EEC47B75
:10081000F1EE10FA0FDD90ED1C7B9FEDBD2B37EE56
:10082000022B9FEDBD7BB4EEC72BF1EE10FA37FE25
:10083000027B80ED1C7B9FEDBA7B25EE075BB4EE5F
:10084000C45BF1EE10FA10D594ED1C7B9FEDB05B0C
:1008500037EE457B9FEDB45BB4EEC57BF1EE10FA4D
:1008600058BFB0EE475B84ED1C5B83EE0D9BBCEE86
:10087000C99BB8EE499B29EE0D9BFCEEC97B94F811
:100880005050CDED037A012DB7EEC66A52D19FEDDF
:10089000A87B3FEE485B85EE07CB3FEE085B85EE1D
:1008A00007ABB0EECC7BB4EEC76BF1EE10FAB0EE56
:1008B000CA5B0DDBB4EEC56BF1EE10FA08DB00236A
:1008C00084F878300023B0EE498B84F8603049E03A
:1008D000B4EEC56BF1EE10FA0CD58AEE0C5B94ED1C
:1008E000AE6AB0EEC55BB7EEC66AB4EEC65BF1EEBB
:1008F00010FAE7DA0023F7EECB0BB7EEC70B84F85C
:10090000603027F05DFEB2EE047BB7EEC00AB0EEB9
:10091000C86B20EE070BB0EECF7BB4EEC67BF1EEDA
:1009200010FA6FDDB5EEC0FBF1EE10FA6FD539EEBF
:10093000400B6EE0B0EECF5BB0EEC87BB4EEC57B93
:10094000F1EE10FA37FE057BB4EEC67BF1EE10FA3D
:1009500053D89FED79AB0023B0EE498BB0EE4ACB74
:1009600084F8603094F878302BBB102204F18801B1
:1009700004F1800023F0A4FA102204F1A00104F194
:10098000980023F09DFAD4E9302384ED249BC4E938
:100990002C23D4E9322384ED2A8BC4E92E23D4E915
:1009A000342384ED34CBC4E93023D4E9362384EDF9
:1009B00036ABC4E93223FCEEC87B17EE903A94EDD7
:1009C0001A7B039AB5EEC07B93421CBF012384F8C7
:1009D0006030F1EE10FA40F3B580012384F8603006
:1009E0009DED007BB4EEC7BBF1EE10FA40F1BD8087
:1009F0009DED047B3BEE07EBA9E09FED4FABB0EE26
:100A00004ACB77E7B5EEC08BF1EE10FA8FD539EE11
:100A1000000B94ED3C7BB4EEC07BF1EE10FA2CD4CD
:100A2000B0EE407B94ED3A6BB4EEC76BF1EE10FA8A
:100A300026DCB0EE476B86EE0D8BBCEEC88BB8EEB5
:100A4000488B012D2DEE088B8CD1B4F8E030022BB1
:100A500019D8FCEEC97BB8EE677B04EBC30282EDCC
:100A6000207B82ED268B04EB0312013382ED2CCB2D
:100A700082ED2EABA4F8E03074E7B0EE4EBBD1E7C8
:100A8000B0EE4EBBD7E794ED2A7B94EDAF6A38EE1B
:100A9000477BB7EEC66AB0EEC77BB4EEC67BF1EE1D
:100AA00010FA28DB94ED287B38EE477BB0EEC77B4D
:100AB000B4EEC76BF1EE10FA1DDD94ED320B94ED40
:100AC000307B3AEE400B3CEE477B20EE000BA7EE6E
:100AD000070B27F03DFD94EDB07AB7EEC77AB4EE80
:100AE000C70BF1EE10FA06D5FCEEC97B84F87850FE
:100AF000B8EE678B36E794F87830012B7FF432AF8D
:100B0000002384F878302DE79A9999999999A93F0B
:100B10007B14AE47E17A843F343333333333C33FFE
:100B2000333333333333C33F111111111111B13F3B
:100B3000CD3B7F669EA0F63F000000000000000055
:100B4000201C083494F86030002B7FF449AF88EE05
:100B50000D7BBCEEC77BB8EE477B27EE0D7B84EDAB
:100B600016EB84ED127B012044E69DED00EBEEE7F1
:100B700090ED1A6BB5EEC06B90ED124BF1EE10FAE2
:100B800090EDAA5BB0EE467BDFBF84EE057BBCEE4A
:100B9000C77BB8EE477B27EE057BB7EEC77B90EDB2
:100BA0003C5BB7EEC74AB4EEC54BF1EE10FAC8BFD6
:100BB000B7EEC57B90ED3A5BB7EEC74AB4EEC54BD6
:100BC000F1EE10FA48BFB7EEC57BB7EEC75AD0F8C2
:100BD000743230B580ED125B93ED005AD0EDAC7AF3
:100BE000B4EEC75AF1EE675AF1EE10FA4FF0000179
:100BF000B0F8F83075FEA77A013B8AB2934205D867
:100C0000442202FB030303F5907311E000EB82041E
:100C1000D4ED445A77EEA55AF4EEC75AF1EE10FA25
:100C200001F10101E9DB442303FB020202F59073A9
:100C3000B5EEC06BF1EE10FAC0F8743205DC93ED3E
:100C4000007AB7EEC77A80ED127B5A6803F138015B
:100C500042609A6803F124048260DA68C2601A690B
:100C6000026100F138025D690C334561DD680C30CA
:100C7000C5601D69A342056151F8045B42F8045B3D
:100C8000F1D1012030BD10B590B078B10022084CF0
:100C90004021084B2270C4F8C802074A684627F072
:100CA00023FC6846D4F8C8329847204610B010BDDF
:100CB00080550834E8230834601C083400280CBF31
:100CC0004FF0FF300120704730B580ED000A0C680E
:100CD00044604C6884608C68C460C96802F1240474
:100CE000016100F1380115680C32456152F8085C69
:100CF0000C30C56052F8045CA242056153F8045BF5
:100D000041F8045BEFD130BD2DE9F04F2DED068B9E
:100D10000D46B0EE409BB0EE418B1E460446C9B076
:100D2000002800F085819FEDC6AB80ED12AB00205E
:100D3000C9494FF00008C4E91601C4E9A601C4E995
:100D4000AA01C649DFF84893C4F8B0124FF07E51AB
:100D5000C4F8B4124FF07C51C4E91A890FF2E829A3
:100D6000D9E90089C4E91C89C4E9A4894FF00008C5
:100D7000C4F8B812BA49DFF81C93C4F8BC124FF09B
:100D80007F510023C4E9A88901274FF00008C4F867
:100D9000C012691EDFF8009388B20428C4E9A08954
:100DA0000FF2AC29D9E9008984F86030C4E9A2893E
:100DB000A4F8E03084F87830A4F8787214D90523C8
:100DC0004FF48071A74A08A827F08EFBD4F8C832E8
:100DD00008A8984784F85070204649B0BDEC068BAF
:100DE000BDE8F04FFFF7C4BE96ED007AB7EEC77AC4
:100DF000B4EEC70BF1EE10FA12DDD4F8C8329A48FF
:100E0000984796ED007AB7EEC77A8DED009B8DED91
:100E1000027B964A4FF4807108A827F065FBD5E75E
:100E20004FF0440808FB05F806EB080919ED117AA4
:100E3000B7EEC77AB4EEC71BF1EE10FA45D4B3464D
:100E400037469946284601384DD11046914600272D
:100E5000A5F1020E01F1010CBCF1010C75D184ED7C
:100E60003A9B84ED3C8B21F04041A4F8F85004F506
:100E700088730131013940F0BF80002704F1FC0A7A
:100E800004F5907906EB070B09EB0700442259465D
:100E900023F0B7FA4437DBF80030B8454AF8043B92
:100EA000F0D16B1E9BB2002D03F1010314BF1A4653
:100EB0000122C4F8749204F5B271013A40F0A180A5
:100EC000012384F85030237086E7D4F8C83268488C
:100ED000984799ED007AB7EEC77A8DED008B8DEDCE
:100EE000027B644A96E7BA469AED007ADAED117A07
:100EF000B4EEE77AF1EE10FA09F1010307F14407C5
:100F000021DBD4F8C8225C480793904797ED007A1C
:100F1000B7EEC77A8DED047B079B584A02939AED92
:100F2000007AB7EEC77A4B468DED007B4FF48071A7
:100F300008A827F0D9FAD4F8C83208A8984701239E
:100F400084F8503048E799467DE7BE45CA4607F128
:100F50000102F9EC017A1CD999ED007AB4EEE77A36
:100F6000F1EE10FA15D8D4F8C832454807929847E0
:100F700099ED007AB7EEC77A8DED047B079A3B4670
:100F800002929AED007AB7EEC77A3E4A8DED007B69
:100F9000CCE75B4693ED007AB4EEE77AF1EE10FA17
:100FA0000BF1440B06DA93ED117AB4EEE77AF1EE29
:100FB00010FA1FD8D4F8C8223348079390479BED06
:100FC000007AB7EEC77A8DED047B079B4FF48071F2
:100FD00093ED007AB7EEC77A8DED027B9AED007A39
:100FE000B7EEC77A3B468DED007B284A08A827F06C
:100FF0007BFAA0E717462FE750F8042B43F8042BA1
:1010000038E7D4F8743291ED006A93ED007AB7EEC8
:10101000C66AB7EEC77A36EE4A6B37EE4A7BB4EE55
:10102000C76BF1EE10FA48BFC4F87412443144E7BC
:101030004FF0FF3049B0BDEC068BBDE8F08F00BF2C
:10104000000000000088B3409A9999999999B93F96
:101050000000000000A06E400000F03F0000484289
:1010600000002F43701C0834B41C08343B1D0834A6
:10107000991D0834211E08347E1E0834E21E0834EF
:101080003A1F0834A91F0834132008346A20083492
:101090000000F0BF000008400000244030B50546C5
:1010A00014468DB052B9D0F8C8321D489847D5F8CB
:1010B000C8321C48984720460DB030BD93ED042B34
:1010C00093ED021B93ED000B0AAA08A906A800F0F5
:1010D0002FF8DDE90823CDE90223DDE90A23CDE974
:1010E0000423012398420446CDE90033DFD1694649
:1010F0002846FFF755FB0128044603D0D5F8C8322F
:101100000948D7E795F86030012BD4D12846FFF77E
:101110002FFD01280446CED0D5F8C8320348C9E7D0
:10112000F0200834512108347A210834AE210834E3
:10113000B5EEC00BF1EE10FA1FB5B0EE417B1346D1
:1011400009D4B5EEC01BF1EE10FA04D4B5EEC02BF5
:10115000F1EE10FA0DD58DED022B8DED007B53ECE9
:10116000102B454822F02CFD4FF0FF3005B05DF804
:1011700004FB9FED336BB4EEC60BF1EE10FA09DC05
:10118000B4EEC61BF1EE10FA04DCB4EEC62BF1EEA1
:1011900010FA07DD8DED022B8DED007B53EC102B4B
:1011A0003648DFE728B181B1AAB93549354B0A463F
:1011B00007E069B933490A463248002B304B08BF73
:1011C0000346314822F0FCFCCEE72D492D4AF3E7D7
:1011D0002C492B4AF0E79FED1C6B9FED1D5B21EE28
:1011E000066BB3EE004BA0EE056B9FED1B5BA2EE12
:1011F000046BA6EE054B9FED1A6B80ED004B26EEBF
:10120000416BBBEE0A4B9FED181BA0EE046B21EE69
:10121000471B9FED174BB2EE047BA0EE041BA2EE22
:10122000046BA2EE471B26EE056B21EE051B81ED3C
:10123000006B012082ED001B98E700BFAFF3008038
:101240000000000000E06F400000000000A06340CC
:101250000000000000804740000000000000703FD8
:101260000000000000805540000000000080594050
:101270000000000000005C40E32108342122083413
:1012800057540734555407346122083400000000D5
:101290002DE9F04106469846736D0F4610460699B3
:1012A00023B9C8F800700860BDE8F081204D5B00EC
:1012B000B5FBF3F59542F4D2B2FBF5F407EE902AB4
:1012C00004FB0552B8EE677A07EE902ADFED196A43
:1012D000F8EE677A67EEA67AB4EEE77AF1EE10FAE6
:1012E000DFD5521B0A60013207EE902AF8EE677ACA
:1012F00087EE270AB7EEC00A24F082FF9FED0A7B33
:1013000020EE070BBCEEC00B10EE103A3B441F461C
:10131000C8F80030F36CBB4294BFC8F80030C8F87E
:101320000070C1E7AFF30080000000000088D340E8
:1013300040420F003333733F07EE901A9FED287A37
:10134000F8EE677A70B587EE871A2DED028B08EEFE
:10135000102AB7EEC11AB2EE040B05461C46069ED3
:1013600025F0CEF8B8EE487B27EE007BFCEEC77B7D
:1013700017EE902A696CB8EE677A914216D900236D
:101380002360C6ED007A6B6CDFED166A07EE903ACB
:10139000F8EE677A67EEA67AB4EE677AF1EE10FAA5
:1013A000C8BF1A463260BDEC028B70BD07EE901AC2
:1013B000F8EE677A87EE270A3160B7EEC00A24F0AC
:1013C0001FFF9FED057B20EE070BBCEEC00B84EDED
:1013D000000AE8E7AFF30080000000000088D34077
:1013E00000409C4648E17A3F10B590B068B10022B9
:1013F000074C4021074B2270A065074A684627F03A
:1014000073F86846A36D9847204610B010BD00BF22
:1014100050580834EE230834AB22083400280CBF9F
:101420004FF0FF300120704738220A2330B5C0E961
:10143000042364222D237821C0E9062340F2DC53E3
:1014400041F27074C0E9081342F6E063C0E90A4350
:101450000BA5D5E90045052348F2E8010365002303
:10146000C0E910310121C0E90C4507A5D5E90045C7
:10147000C0E91212C0E90E45436530BDAFF30080EC
:1014800000000040E17A943F000000E04D62703FB0
:1014900010B5044620B1FFF7C7FF0120207010BD32
:1014A0004FF0FF30FBE72DE9F04F0F461546984609
:1014B000044689B0002800F03B810378012B1CD141
:1014C00002230370D4F85490B9F1000F19D09C4B4B
:1014D0004FEA4902B3FBF2F3A66CBE4213D2626C30
:1014E000AA4210D9B5FBF3F203FB12535BB1C4E976
:1014F0000156012009B0BDE8F08F022BE2D0002098
:10150000F8E70123E8E70DF1140A394604AB2A464F
:101510002046CDF800A0FFF70FFFDDE904B1D4F8B5
:1015200010C0B6EE005B07EE90CAB8EE676A07EE31
:10153000908AB8EEE77BB7EEC66A37EE057B86EE9B
:10154000070B236DB7EEC00B98450ED3ACEB08002C
:10155000E36980EAE072A2EBE0729A4259D9236A09
:101560009A422CBFE36AA36A54E0F0EE007AB4EE2C
:10157000E70AF1EE10FAE9D4626C91422BD201290C
:101580000B4638BF012307EE903AF8EEE77A67EE94
:10159000807AFDEEE77A17EE903A93420EDCC4EDC6
:1015A000017A07AB00932046D4E9012106ABFFF78F
:1015B0006FFE069BA360079B63609AE707EE902A85
:1015C000F8EEE76A07EE901AB8EE677AC6EE877A09
:1015D00080EE270A6260F7EE007AB4EEE70AF1EED9
:1015E00010FADEDDB7EEC00A24F00AFEB3EE047B8B
:1015F00020EE070B9FED507B20EE070BBDEEC00BDE
:1016000010EE103AE26C5B449342D4BFA360A26038
:10161000C7E7636AD4F814E0A26903930EEB0C03E6
:10162000434500FB02F24CD2DDED037A9FED457A93
:10163000F8EEE77A67EE877A07EE102AF1EE676A2E
:10164000B8EEC77AB4EEE67AF1EE10FA04D5FDEE04
:10165000E77A17EE903A5A42002A57D05E454AD1AF
:10166000656CA94236D3002A45DA01FB000007EE7B
:10167000900AB8EEE76B07EE901A94ED0E5BB8EEA9
:10168000E77BA6EE057BBDEEC77B17EE102A236C29
:10169000C4F808B09A42B8BF1A46AA42D4BF6260E2
:1016A00065602046CDF800A004ABD4E90121FFF726
:1016B000EFFD049B059DA360234B6560C3F860901C
:1016C00017E7ACEB0E0CC44520DD039B9A42A8BF84
:1016D0001A46C1E7002AC8DB01FB000007EE900AAA
:1016E000B8EEE76B07EE901A94ED0C5BB8EEE77B73
:1016F000A5EE067BC7E793445E4504DCE36C5E46DB
:101700009B45A8BF1E46C4E90116CAE70E4B1B6ED7
:1017100099450BD02A4639462046CDF800A004ABA7
:10172000B9F1000FC3D1FFF707FEC2E7A760C3E717
:101730004FF0FF30DEE600BF0000000000408F40A9
:1017400040420F009A99593F5058083481F00041A7
:1017500002E000BF83F0004330B54FEA41044FEA96
:10176000430594EA050F08BF90EA020F1FBF54EA31
:10177000000C55EA020C7FEA645C7FEA655C00F0CD
:10178000E2804FEA5454D4EB5555B8BF6D420CDD9E
:101790002C4480EA020281EA030382EA000083EA21
:1017A000010180EA020281EA0303362D88BF30BDC1
:1017B00011F0004F4FEA01314FF4801C4CEA113117
:1017C00002D0404261EB410113F0004F4FEA033376
:1017D0004CEA133302D0524263EB430394EA050F01
:1017E00000F0A780A4F10104D5F1200E0DDB02FA70
:1017F0000EFC22FA05F2801841F1000103FA0EF204
:10180000801843FA05F359410EE0A5F120050EF1C9
:10181000200E012A03FA0EFC28BF4CF0020C43FAFA
:1018200005F3C01851EBE37101F0004507D54FF007
:10183000000EDCF1000C7EEB00006EEB0101B1F557
:10184000801F1BD3B1F5001F0CD349085FEA30009D
:101850004FEA3C0C04F101044FEA445212F5800FA8
:1018600080F09A80BCF1004F08BF5FEA500C50F145
:10187000000041EB045141EA050130BD5FEA4C0C28
:10188000404141EB0101013C28BFB1F5801FE9D285
:1018900091F0000F04BF01460020B1FA81F308BFA8
:1018A0002033A3F10B03B3F120020CDA0C3208DD74
:1018B00002F1140CC2F10C0201FA0CF021FA02F14F
:1018C0000CE002F11402D8BFC2F1200C01FA02F1BF
:1018D00020FA0CFCDCBF41EA0C019040E41AA2BFE4
:1018E00001EB0451294330BD6FEA04041F3C1CDAAC
:1018F0000C340EDC04F11404C4F1200220FA04F0CC
:1019000001FA02F340EA030021FA04F345EA030175
:1019100030BDC4F10C04C4F1200220FA02F001FA37
:1019200004F340EA0300294630BD21FA04F02946B9
:1019300030BD94F0000F83F4801306BF81F4801152
:101940000134013D4EE77FEA645C18BF7FEA655CC5
:1019500029D094EA050F08BF90EA020F05D054EA97
:10196000000C04BF1946104630BD91EA030F1EBF9C
:101970000021002030BD5FEA545C05D140004941A0
:1019800028BF41F0004130BD14F580043CBF01F593
:10199000801130BD01F0004545F0FE4141F4700179
:1019A0004FF0000030BD7FEA645C1ABF1946104654
:1019B0007FEA655C1CBF0B46024650EA013406BF55
:1019C00052EA033591EA030F41F4002130BD00BF14
:1019D00090F0000F04BF0021704730B54FF48064D1
:1019E00004F132044FF000054FF0000150E700BF52
:1019F00090F0000F04BF0021704730B54FF48064B1
:101A000004F1320410F0004548BF40424FF000019D
:101A10003EE700BF42004FEAE2014FEA31014FEAE0
:101A200002701FBF12F07F4393F07F4F81F060512F
:101A3000704732F07F4208BF704793F07F4F04BF7A
:101A400041F40021704730B54FF4607401F0004557
:101A500021F000411CE700BF50EA010208BF7047B7
:101A600030B54FF000050AE050EA010208BF7047A8
:101A700030B511F0004502D5404261EB41014FF411
:101A8000806404F132045FEA915C3FF4D8AE4FF019
:101A900003025FEADC0C18BF03325FEADC0C18BFFC
:101AA000033202EBDC02C2F1200300FA03FC20FA4D
:101AB00002F001FA03FE40EA0E0021FA02F114449A
:101AC000BDE600BF7BB972B90029BEBF00204FF050
:101AD000004106E008BF00281CBF6FF000414FF036
:101AE000FF3000F0C9B9ADF1080C6DE904CE002952
:101AF00009DB002B1ADB00F04DF8DDF804E0DDE92E
:101B0000022304B07047404261EB4101002B1BDB14
:101B100000F040F8DDF804E0DDE9022304B04042C3
:101B200061EB4101524263EB43037047524263EB66
:101B3000430300F02FF8DDF804E0DDE9022304B0F0
:101B4000404261EB41017047524263EB430300F0B6
:101B500021F8DDF804E0DDE9022304B0524263EB32
:101B60004303704753B94AB9002908BF00281CBF76
:101B70004FF0FF314FF0FF3000F07EB9ADF1080CAF
:101B80006DE904CE00F006F8DDF804E0DDE902239B
:101B900004B070472DE9F04F099D0C46002B4DD144
:101BA0008A420F4684469646B2FA82F360D94BB118
:101BB00002FA03FEC3F120029F4000FA03FC20FA60
:101BC00002F217434FEA1E461FFA8EF44FEA1C42F8
:101BD000B7FBF6F106FB117701FB04F042EA07427E
:101BE000904208D91EEB020201F1FF3702D2904267
:101BF00000F22D813946121A1FFA8CFCB2FBF6F066
:101C000006FB102200FB04F44CEA024C644508D9A0
:101C10001EEB0C0C00F1FF3202D2644500F21A8177
:101C2000104640EA0140ACEB040C002125B12CFA2F
:101C300003F30022C5E90032BDE8F08F8B4205D9DD
:101C40000DB1C5E9000100210846F5E7B3FA83F1BB
:101C500000294DD1A342C0F0F280904280F0EF8085
:101C6000064623460846002DE6D0C5E90063E3E7B3
:101C7000002B40F0A2808A1A4FEA1E471FFA8EF608
:101C80000121B2FBF7F407FB14204FEA1C4242EAA1
:101C9000004206FB04F090420FD91EEB020204F151
:101CA000FF382CBF4FF001094FF00009904203D9D3
:101CB000B9F1000F00F0C8804446121A1FFA8CFCDC
:101CC000B2FBF7F007FB102200FB06F64CEA024CD1
:101CD000664508D91EEB0C0C00F1FF3202D26645B6
:101CE00000F2BB801046ACEB060C40EA04409DE7D6
:101CF000C1F120068B4004FA01FE22FA06F720FA11
:101D000006FCF4408A401F434EEA0C0300FA01FE31
:101D10004FEA17484FEA13491FFA87FCB4FBF8F063
:101D200008FB104449EA044400FB0CF9A1450ED914
:101D30003C1900F1FF3A2CBF4FF0010B4FF0000BA4
:101D4000A14503D9BBF1000F00F093805046A4EBEE
:101D500009041FFA83F9B4FBF8F308FB134403FBEF
:101D60000CFC49EA0444A44506D93C1903F1FF38A8
:101D700001D2A4457AD8434643EA0040A4EB0C04C0
:101D8000A0FB02984445CC46434602D306D1CE453B
:101D900004D20138B9EB020C68EB07035DB1BEEB6E
:101DA0000C0264EB030404FA06F622FA01F3CC40B9
:101DB0001E43C5E9006400213EE702FA03FEC3F1B9
:101DC000200104FA03F200FA03FCCC404FEA1E475C
:101DD00020FA01F11FFA8EF6B4FBF7F00A4307FB75
:101DE0001044110C41EA044100FB06F48C420ED968
:101DF0001EEB010100F1FF382CBF4FF001094FF03D
:101E000000098C4202D9B9F1000F2CD04046091BC1
:101E100092B2B1FBF7F407FB141142EA014204FB52
:101E200006F1914207D91EEB020204F1FF3801D2FC
:101E3000914215D84446521A44EA004121E7861AD5
:101E400064EB030301200EE7023C724435E70239DC
:101E50007244D0E6F4440238E3E6F444023842E740
:101E6000023C7244E7E702387144D0E7023B3C444D
:101E700082E702383C446AE7704700BF044B82B0F7
:101E8000C3F84C0AD3F84C320193019B02B070475F
:101E900000800256044B82B0C3F8600AD3F8603267
:101EA0000193019B02B070470080025630B5ADF53A
:101EB0001B7D40220021684622F01CF89822002158
:101EC00010A822F017F84FF4C872002136A822F0AB
:101ED00011F8012011F040FC012003F0D7F8012493
:101EE000002319227D210225CDE91D32CDE92514DB
:101EF0000822E121CDE91A53CDE92153CDE923236D
:101F0000CDE92932CDE92B31CDE92F53CDE931236C
:101F10001093062310A8CDE91F44CDE92745CDE94C
:101F20002D45CDE934331C95339108F055F800B1B7
:101F3000FEE74FF440337F22CDE900234FF040739A
:101F400002934FF08053CDE90C344FF00053CDE9AC
:101F50000E344FF48013CDE90804CDE90A05CDE92C
:101F60000330CDE905000790684608F037FC00B162
:101F7000FEE7084B002261934FF44003CDE936237E
:101F8000054B36A8629308F0B3FF00B1FEE70DF5EC
:101F90001B7D30BD14000003140400032DE9F04341
:101FA0009BB003F061FB02AB014601AA4FF0FF308A
:101FB00003F062FB0024DDE9011220B2013403F0DA
:101FC000C7FAC32CF7D1FFF771FF1BF04BFE1023AC
:101FD000A64C0225C4F86C3AD4F86C220127129260
:101FE000129AC4F85C3AD4F85C324FF007081193A7
:101FF000119B60239E4815A91593CDE91657189596
:10200000CDF8648006F0ECFA4FF4E13399489A4A2F
:102010000C21C0E900230023C0E90431C0E90233E8
:1020200083614FF40043C3610EF08AFF024600B1A2
:10203000FEE74FF00040DFF89492FFF72BFFC4F863
:10204000200AC9F820023846FFF718FF2846FFF794
:1020500015FF0420FFF712FF0820FFF70FFF4FF4D2
:102060008053C4F8543AD4F8543215A81393139BF0
:10207000824BCDE91622159307F010FC804B15A872
:10208000159307F00BFC7F4B15A8159307F006FC82
:102090007D4B15A8159307F001FC01F055FF7B4817
:1020A0007B4B036010F062FE064628B1A421794BF9
:1020B000794A7A4820F0D8FE10F0AEFE10F0D0FE3B
:1020C000042010F08FFE10F0C1FE14F0D3FC14F0C9
:1020D000DBFC40F2011369463046ADF8003011F0E8
:1020E000CDFE304611F03EFE4FF40073C4F8583A6E
:1020F000D4F85832159503253846149315A9149B26
:10210000169507F0F3FA15A9082007F0EFFA15A9BC
:10211000092007F0EBFA15A90A2007F0E7FA15A93C
:102120000B2007F0E3FA15A9042007F0DFFA404678
:1021300015A907F0DBFA2946594807F02BFB294679
:10214000584807F027FB2946574807F023FB294644
:10215000564807F01FFB2946554807F01BFB294648
:10216000544807F017FB2946534807F013FB29464C
:10217000524807F00FFB2946514807F00BFB294650
:10218000504807F007FB29464F4807F003FB294654
:10219000042007F0FFFA4FF48063C4F8583AD4F8EB
:1021A00058221592159AC4F8183AC9F818324FF007
:1021B000FF33C4F8843AD4F884221092109AC4F8F9
:1021C0008C3AD4F88C220F920F9AC4F8903AD4F833
:1021D00090220E920E9AC4F8943AD4F894220D925A
:1021E0000D9AC4F8983AD4F898220C920C9AC4F834
:1021F0009C3AD4F89C220B920B9AC4F8A03AD4F8DB
:10220000A0220A920A9AC4F8A43AD4F8A422099205
:10221000099AC4F8A83AD4F8A8220892089AC4F8EF
:10222000AC3AD4F8AC220792079AC4F8B43AD4F87E
:10223000B4220692069AC4F8B83AD4F8B8220592A5
:10224000059AC4F8BC3AD4F8BC220492049AC4F8A3
:10225000883AD4F888320393039B01F0B7FB3046E9
:102260001AF0A2FE1BB0BDE8F08300BF008002564A
:10227000001002562069083400100052003102524A
:102280008031025200320252803202521469083404
:1022900000400358E2470734D48B0234B88B023431
:1022A0000400003003000030020000300A0000305B
:1022B000050000301C0000201D000020060000303A
:1022C000070000300800003018000010009002568F
:1022D0007FB53B4A136843F400531360394B1A6AC5
:1022E00022F440321A621A6A22F040721A6203F033
:1022F000EEF8354B5A6912F4003211D1BFF34F8F0B
:10230000BFF36F8FC3F85022BFF34F8FBFF36F8FB0
:102310005A6942F400325A61BFF34F8FBFF36F8F97
:10232000274A136843F480531360A2F5734253693C
:1023300013F4803328D1C2F88430BFF34F8F43F6B3
:10234000E074D2F88030C3F3C900C3F34E335B01AD
:1023500000F1010E01464EF001E003EA040646EAF0
:102360008175C2F8605201390FF007C8203B13F1A4
:10237000200FEDD1BFF34F8F536943F48033536186
:10238000BFF34F8FBFF36F8F104B4FF480620293F8
:102390000F4B1049019301230F48009300231AF0BB
:1023A0000FFD30B94FF4A2710C4B0D4A0D4820F0CF
:1023B0005BFD1AF04FFE40F247110B4B084AF5E760
:1023C00000E001E00080025600ED00E0B46808344F
:1023D000B4580834C38B02349D1F0034C88B0234B8
:1023E000DF8B0234B88B0234E2470734FEE700B5D6
:1023F000E5B04FF4C8720021684621F07BFD002350
:102400001022CDE900234FF400134FF08051329396
:1024100003236846CDE9221308F06AFD48B900237A
:102420000822CDE90023282324906846259308F04C
:102430005FFD65B05DF804FB08B54FF48060FFF701
:102440001DFD4FF08040FFF725FD044BC3F8200A27
:1024500003F58053C3F8200208BD00BF0080025678
:1024600000BEFEE708B502680C4B9A4215D14FF446
:10247000801060220A4BC3F8200A03F58053C3F88A
:102480002002FFF707FD074B83F8412302229A60E1
:10249000502283F8422304229A6008BD004003586A
:1024A0000080025600E100E0027D436802B11B6833
:1024B000806818447047036810B5002BB8BF00242B
:1024C0000A68B8BF04600C68002CBCBF00240C6014
:1024D0000468B4F5A07F24BF40F23F1404600C6888
:1024E000C72C84BFC7240C600068984204D10868D8
:1024F000801A18BF012010BD0120FCE7F8B5054681
:102500000C46002601F12007D5ED007AFDEEE77AB2
:10251000C4ED007AD5ED017AFDEEE77A214617EE9B
:10252000903A204641F8043FFFF7C5FF0834BC420B
:1025300046EA000605F10805E6D13046F8BDD0EDC3
:10254000027A90ED037AF6EE006A67EEE67A27EEFD
:10255000667AB1EE676AF1EE476A2DE9F041C1EDA6
:10256000007A2DED068B06460C4681ED017A81ED51
:10257000026A81ED037A81ED046AC1ED056AC1ED5D
:10258000067AC1ED076A88460F4601F1200596EDEF
:1025900004AAB7EECAAAB0EE4A0B23F065FEB0EE6D
:1025A000408BB0EE4A0B23F0ABFE97ED016A97ED3E
:1025B000009AB7EEC66AB7EEC99A26EE407BA8EE3F
:1025C000097B28EE068BA9EE008BB7EEC77BB7EE32
:1025D000C88B87ED007A87ED018A0837BD42D6D1D6
:1025E000A5EB040EAEF1080E4FEADE0E0EF1010E61
:1025F0004EF001E096ED007AD8ED007A77EE877A1A
:10260000C8ED007AD8ED017A96ED017A77EE877AF7
:1026100008F1080848ED017A0FF015C0BDEC068BF3
:10262000BDE8F08110B54942044600681AF012FA7C
:1026300070B1D4F8B43004EB8302D2F8AC00D4F813
:10264000A820013393FBF2F102FB1133C4F8B4303C
:1026500010BD000010B54FF0FF310446406D1AF078
:10266000F9F9012806D040F2E3410D4B0D4A0E481E
:1026700020F0FAFBD4F8C030606DB3FA83F35B0945
:10268000C4F8C03000231A4619461AF03FF8012852
:1026900004D040F2E641024B024AE8E710BD00BF19
:1026A000ED8B023465910234FB8B023410B54FF090
:1026B000FF310446406D1AF0CDF9012806D040F2F2
:1026C000D7410D4B0D4A0E4820F0CEFBD4F8BC305C
:1026D000606DB3FA83F35B09C4F8BC3000231A467B
:1026E00019461AF013F8012804D040F2DA41024BDF
:1026F000024AE8E710BD00BFED8B02344B91023473
:10270000FB8B023410B5094C4FF0FF3120681AF0F2
:10271000A1F9012806D040F21B51054B054A064895
:1027200020F0A2FB02F09EFCEEE700BFB00A0C34E2
:10273000ED8B02348D910234FB8B023438B50446A4
:10274000007811F06BF863680546834204D018B135
:10275000A3680BB1E0689847656038BD08B54FF4D1
:10276000BC71024B024A034820F07EFB058C023408
:102770003F910234FB8B02342DE9F0432DED0A8B9F
:1027800090ED0CCAB7EECCCAADF5AF5D85B0B0EE3A
:102790004C0B044690ED08AA90ED0ABA23F064FDB4
:1027A000B0EE408BB0EE4C0B23F0AAFD94ED0B9AEB
:1027B00094ED096AE8460DF56A650DF5EA6EB7EE27
:1027C000CAAAB7EECBBAB7EEC99AB7EEC66AA9469F
:1027D00076464746B6EE005B4FF4EA7C94ED0D3A40
:1027E00094ED0E4AB7EEC33AB7EEC44A33EE453B1A
:1027F000B0EE4A7B23EE0B3B34EE454BA3EE087B59
:1028000024EE094BA4EE407BF7EEC72BB0EE467BDF
:10281000A3EE007BA8EE047BFDEEE24AB7EEC77B99
:1028200014EE902AFDEEC77A012A1146B8BF0121A5
:1028300017EE903AB1F59F7FA8BF4FF49F71012B1F
:102840001846B8BF0120C628A8BFC6201B1A18BF4B
:1028500001238A4218BF0123BCF1010C48F8041B74
:102860004EF8040B49F8043B04F10804B6D10024E7
:1028700055F8043B43B96FF0FF03012256F82410CA
:1028800057F8240010F0F4FE0134B4F5EA7FEFD1DC
:102890000DF5AF5D05B0BDEC0A8BBDE8F08300001F
:1028A00038B50D4602210446021D084619F00EFFF8
:1028B000206050B10021022004F1580219F006FFF7
:1028C000606528B920681AF0C5F94FF0FF300DE0B7
:1028D0000223C4F8A8302B684BB1C4F8AC306B6845
:1028E0002BB10020C4E92D00C4F8B03038BD40F24F
:1028F000BD11024B024A034820F0B6FA1B8C023489
:10290000A1900234FB8B023408B500231A46194605
:1029100019F0FCFE012806D040F2DF11024B034AF9
:10292000034820F0A1FA08BDED8B02349C910234DB
:10293000FB8B02342DE9F04FBE4E97B006F50058E0
:10294000BD4B4FF0FF3118681AF084F8012806D00B
:102950004FF48A61B94BBA4ABA4820F085FA4FF071
:10296000FF31D8F83C0C1AF075F8012804D040F279
:102970005341B24BB24AEFE7F768D8F83C0C7B1CE6
:10298000F360002319461A4619F0C0FE01280146DB
:1029900004D040F25741A94BA94ADDE73269AA4B5E
:1029A000AA4800FB0239AA48FFF73CFE054614205E
:1029B00000FB076006A92030FFF7C1FD0EA906A89D
:1029C000FFF79CFD002800F005814FF4D83200216C
:1029D000284621F08FFA9DED067AFDEEC77A17EEB4
:1029E000902A0E9B93426FD007EE903AF8EEE77A6A
:1029F000DFED986A77EEC77A9DED0A6A67EEA67AF0
:102A000036EE476AC7EE866AF8FE667AFDEEE77A2A
:102A100017EE902ADDED076AFDEEE67A17EE901AC2
:102A20000F9C8C4252D007EE904AF8EEE77A9FED69
:102A3000896A77EEE67ADDED0B5A67EE867A75EEF7
:102A4000E65A87EEA56AF8FE467AFDEEE77A17EEBB
:102A5000900A4FF4107C02EB42010CFB0011294458
:102A6000B2B307EE903A9DED0A6AF8EEE77ADFED31
:102A7000795A76EE677A67EEA57A36EE476A87EE80
:102A8000867AF8FE477AFDEEE77A17EE903A90B331
:102A900007EE104ADDED0B7AB8EEC77A9FED6D6A4E
:102AA00037EEC77A27EE067A77EEE66AC7EE267A21
:102AB000F8FE677AFDEEE77A17EE904A63BB40F2C4
:102AC0009531654B654A47E70022A3E70020C0E740
:102AD000129BB3F59F7F0CD907EE903AF8EEE77A98
:102AE0009FED5C6A77EEC77A67EE867A9DED0A6A9B
:102AF000C3E7C023CBE7139CC62C40F28B8107EEC3
:102B0000904AB8EEE77ADFED537A37EE667A27EE31
:102B1000277ADDED0B7AC7E7002C40F07F8140F289
:102B200096314F4B4D4A17E707EE104AB8EE477AF9
:102B3000B4EEE77AF1EE10FA04D94FF46671494B1E
:102B4000464A09E7002A04DA40F29931464B434AE3
:102B500002E7002804DA40F29A31444B3F4AFBE690
:102B600072B11A4407EE102AB8EE477AB4EE677ACB
:102B7000F1EE10FA04D04FF467713D4B374AEBE6A3
:102B800070B1204407EE100AB8EE477AB4EE677AC7
:102B9000F1EE10FA04D040F29E31364B2F4ADBE6BC
:102BA0006FF4107003EB430202444FF4107000FB0B
:102BB00004220A44954204D94FF469712E4B274AE6
:102BC000CAE605F5D830824207D340F2A5312B4B37
:102BD000224AC1E6C02329461C46DDE90ECA4FF44D
:102BE000707B139A0CEB4C000BFB0A00A2EB0A0A59
:102BF000129A4844B2EB0C0C04D140F2AD31204B98
:102C0000164AA9E6BAF1000F04D140F2AE311D4BCD
:102C1000124AA1E66FF470720CEB4C0E0BFB0AEE3D
:102C200096448644F14531D94FF46D71164B0B4AE9
:102C300092E600BF80DC0B345C0A0C34ED8B02346E
:102C4000DA910234FB8B0234A08A143400EE0200C5
:102C5000B47B083400004043268C0234AC9102342B
:102C6000348C0234598C0234718C02347F8C0234DF
:102C70008D8C0234AE8C0234D18C0234E78C023459
:102C8000268D0234338D0234418D023409F53B39EF
:102C900009F50079CE4504D340F2B531684B694A55
:102CA0005AE6DFF8CCE1CDE901A3CDF814E04FF00E
:102CB000030E4FF410735A46CDE9034ECDF800C011
:102CC0001BF07EFA3368002B1CDD05F01F021A444E
:102CD000BFF34F8FEB43AC182344203A5B092032FB
:102CE00003F1010ED8BF4FF0010E29464EF001E06E
:102CF0005548C0F85C1220310FF005C8BFF34F8F64
:102D0000BFF36F8F4FF0FF31D8F8E40C19F0A2FE3B
:102D1000012804D040F211414C4B4D4A1CE6294693
:102D20000020326801F0C8FF044620B140F2134190
:102D3000484B474A10E602F0A7F90546464813F00B
:102D400001F902F0A1F9454B451B1868FFF7DCFDBE
:102D50004FF0FF31D8F83C0C19F07CFE012804D06C
:102D600040F21A41394B3A4AF6E54FF46A6101FBE9
:102D7000076170685C3101F0CBF806EB87072346EA
:102D800022462146D8F83C0C7D6119F0BFFC012891
:102D900004D040F21E412D4B2D4ADDE5B268002AD9
:102DA0001BDD736803F01F011144BFF34F8FDA433B
:102DB0005D182A4420395209203102F1010ED8BF92
:102DC00086464EF001E0204CC4F85C3220330FF010
:102DD00005C8BFF34F8FBFF36F8F0023D8F8E40C03
:102DE0001A46194619F092FC012804D040F22441F9
:102DF000164B174AB0E5002319481A4619460068D1
:102E000019F084FC01283FF49BAD40F25C410F4B6C
:102E1000144AA1E5002B3FF452AEC02407EE103A4D
:102E2000DFED117AB8EE477AB4EEE77AF1EE10FAF8
:102E30007FF67AAE40F297310C4B024A8CE500BF28
:102E4000578D0234AC91023400ED00E0ED8B02347A
:102E5000C8910234998D023404240834B47B0834B8
:102E6000080A0C34DA91023400004043438C0234E7
:102E7000B4690834000000002DE9F04F2DED088BF7
:102E8000A5B001F05DFE044601F056FED0E9022334
:102E900004F138009B1A0993FFF706FBD4E91023CD
:102EA0009B1AB3F5007F0A900B9306D040F21E31B7
:102EB0007E4B7F4A7F481FF0D7FF2046FFF7F4FA8A
:102EC000D4E902239B1AB3F5005F0C900D9304D054
:102ED00040F22131784B764AECE704F17000FFF7BD
:102EE000E3FAD4E91E239B1AB3F5C07F0E900F932B
:102EF00004D04FF44971714B6D4ADBE704F1A8002F
:102F0000FFF7D2FAD4E92C239B1AB3F5C05F1090D7
:102F1000119304D040F22731694B654ACAE76949E9
:102F200012A814F08DF8054620B140F22B31664B03
:102F30005F4ABFE7654F4FF0FF3107F50058D8F8FB
:102F40003C0C19F087FD012804D040F27241604B1F
:102F5000604AAFE701F022FF044601F01BFFD0E911
:102F6000022320469B1A3B60FFF79EFAD4E9022316
:102F70009B1AB3F56A6F7860BB6004D04FF4577149
:102F8000554B564A96E72B462A462946D8F83C0C1C
:102F900019F0BCFB012804D040F279414C4B4D4A5A
:102FA00088E702F071F8294604464D48FFF73AFBDE
:102FB00020B940F27E414B4B464A7BE79FED4A9A4F
:102FC000294602F03BF8B0EE49AAF0EE499AF0EE3D
:102FD00049AA02F059F8DFF8089101904FF0FF314B
:102FE000D9F8540019F036FD012804D04FF4F471DB
:102FF000374B3E4A5EE7D9F8B83009EB8302D2F886
:10300000AC50D9F8A820013393FBF2F102FB113345
:10301000C9F8B83025B940F28A41354B2D4A49E705
:103020004FF0FF31D8F83C0C19F014FD012804D002
:1030300040F28C41264B274A3CE72E4BD8F83C0CFB
:103040001B6803F001033B6100231A46194619F07F
:103050005DFB012804D040F28F411D4B1D4A29E73A
:1030600002F012F829460290099A002001F0F2FCC1
:1030700020B14FF44E71204B204A1BE7114812F04B
:1030800061FF0C9B042105930A9B22AA06930E9BC9
:1030900005A80793109B089312AB14F037F8064667
:1030A00070B340F23D31084B144A03E7B88D023447
:1030B000F0900234FB8B0234038E0234548E0234BF
:1030C0009F8E023434240834F08E023480DC0B34BA
:1030D000ED8B023403910234098F0234DD90023407
:1030E000942C0D34478F023400000000CC90023441
:1030F000538F023460AD0E34998D0234BA9002348D
:10310000DDF88CA0B64BBAF1030FD3461D46A8BF1D
:103110004FF0030B9FEDB3BA9FEDAF8B0093B34518
:1031200000F3B6800B9A002A1CDD0A9B03F01F00F7
:103130001044BFF34F8FDA431D182A442038520938
:10314000203002F1010ED8BF4FF0010E4EF001E029
:10315000A549C1F85C3220330FF005C8BFF34F8F8B
:10316000BFF36F8F0D9A002A1CDD0C9B03F01F002C
:103170001044BFF34F8FDA431D182A4420385209F8
:10318000203002F1010ED8BF4FF0010E4EF001E0E9
:103190009549C1F85C3220330FF005C8BFF34F8F5B
:1031A000BFF36F8F0F9A002A1CDD0E9B03F01F00E8
:1031B0001044BFF34F8FDA431D182A4420385209B8
:1031C000203002F1010ED8BF4FF0010E4EF001E0A9
:1031D0008549C1F85C3220330FF005C8BFF34F8F2B
:1031E000BFF36F8F119A002A1CDD109B03F01F00A4
:1031F0001044BFF34F8FDA431D182A442038520978
:10320000203002F1010ED8BF4FF0010E4EF001E068
:103210007549C1F85C3220330FF005C8BFF34F8FFA
:10322000BFF36F8F01F030FF0546D9F80000FFF7BC
:103230006BFB0026DFF8D0915E45C0F2AD80002622
:10324000DFF8C8915E45C0F2B7803A696749684BBC
:1032500001FB0233BFF34F8F41F2707E4EF001E06D
:10326000614AC2F85C3220330FF005C8BFF34F8FBC
:10327000BFF36F8F5F4E4FF0FF31706D19F0EAFBB7
:10328000012800F0C78040F2A1415B4B5B4A11E688
:103290001C227243229B4FF0060E1344D3ED007A9A
:1032A00067EE8B7AC3ED007AD3ED017A67EE8B7A05
:1032B000C3ED017AD3ED027A67EE8B7AC3ED027A21
:1032C000D3ED037A67EE8B7A4EF001E0C3ED037A1B
:1032D0009B69D3ED007A67EE8B7AC3ED007AD3ED6C
:1032E000017A67EE8B7A083343ED017A0FF00FC84D
:1032F0004FF0FF31D8F83C0C039219F0ABFB0128DA
:10330000039A04D040F243313B4B3D4AD2E5229B25
:103310003C48134493ED026AD3ED036A26EE2A5A21
:1033200026EEAA7AB7EEC55AB7EEC77AB0EE453B9D
:10333000B4EE666AA7EE483BA5EE087BF1EE10FA04
:10334000D3ED004A93ED014AB7EEC33BB7EEC77B1E
:1033500076FE266A76EEA66A002374EE835A37EE6E
:10336000047AC5ED0CAAC5ED085A85ED097AC5EDBC
:103370000A6AC5ED0B6A1A461946D0F83C0C19F0DA
:10338000C5F9012805F1140504D040F246311A4B65
:103390001B4A8FE50136C2E60023D9F800001A4621
:1033A000194619F0B3F9012804D040F29741124BA5
:1033B000124A7FE501363FE74FF0FF31D9F80000B0
:1033C00019F048FB012804D040F29B410A4B0B4AFC
:1033D00070E5013636E700BF000000000000000085
:1033E00080DC0B340000A04300ED00E000EE0200A2
:1033F000A08A143464240834ED8B0234039102341F
:10340000BA90023480FC0B345C0A0C34080A0C3489
:103410000000803D029BB1EE0C8AEB1A07EE903A59
:10342000F8EE677AF4EE008AEAEE087A27EEA8AAA8
:10343000FDEECA7A5346C6ED2B7ABAF1000F03D0DF
:10344000FDEEC97A17EE903A019AB2EE0E7A121B8F
:1034500007EE902AF8EE677AE9EE877A5FED149A24
:1034600067EEA99AC6F8B030229B4FF0FF311B6976
:10347000D8F83C0CC6ED2A9AC6F8C4B0C6F8C830D5
:1034800019F0E8FA0128029004D04FF49561404BFE
:10349000404A0FE50026DFF808913F4C229DFE6070
:1034A000A9F14C0A5E450EDB00233C481A4619463A
:1034B000D0F83C0C19F02AF9012853D040F2B3415E
:1034C000334B344AF6E4DAED017AF8EE677A4FF0DE
:1034D000060EE9EE087A029B27EEA89AC4F8CC30D3
:1034E0002B694EF001E0C4F8E0302B680AF1040AC1
:1034F000C4F8D0306B68C4F8D430AB68C4F8D830A6
:10350000EB68C4F8DC30D4F8E830D5F818C0039381
:103510000023039A0CEBC30102EBC30203C901337E
:1035200082E803000FF00BC8009B04F1EC0C03F1E0
:10353000200EBEE80F00ACE80F00DEF80030494670
:10354000CCF8003004F580704FF46A6220F059FF27
:10355000009B01361433009304F6D46409F56A69BC
:103560001C359FE700230C4C1A461946606D19F074
:10357000CDF8012804D040F2B541054B054A99E445
:10358000002320681A46194619F0C0F8019C20E56E
:10359000ED8B0234039102346424083480FC0B3434
:1035A000DCDC0B342DE9F043836905460C4695B00D
:1035B000002B7FD0D1ED017AFDEEE77A17EE900A6D
:1035C000D1ED027AFDEEE77A17EE901AD4ED047A87
:1035D000FDEEE77A17EE903AD4ED037AFDEEE77A46
:1035E00017EE902A013202EBD2720133521003EB34
:1035F000D37352425B1086185B42801A0296CE1833
:10360000C91A04900C9102A803A90396FEF753FF70
:103610000CA904A8FEF74FFFDDE902014FF0FF23DC
:10362000049A00930C9B121A5B1A0FF00BFF0026F2
:10363000DFF89C80254FE269012E02EBC602D2ED35
:10364000007AFDEEE77ACDED027AD2ED017ACCBFB9
:10365000C146B946FDEEE77A03A902A8CDED037A8B
:103660000136FEF728FFDDE902014B4602220FF08A
:10367000FFFF062EDFD104A904F12000FEF75FFF53
:103680000CA904A8FEF73AFF0CAF064690B9DFF884
:103690004080013614AB06F00302CDF8008003EB46
:1036A000C202796852E9082357F8080B0FF06CFE44
:1036B000042EEED16B692BB1204615B0BDE8F04366
:1036C000FFF75AB815B0BDE8F08300BFFF0000FF58
:1036D0000000FFFF000000002DE9F04F2DED048BEE
:1036E0000021ADF5355D87B0A34E16AB0AAA08469A
:1036F000C6F8E820C6F8BC3F06F5805222ABC2F8F7
:10370000903E10F047F8014608B1FFF727F89B4AB2
:1037100002ABC3E901021870DE6010F03BF800282C
:10372000F3D104469FED929B954BDFF89882CDE94B
:1037300007038DF8180009964FF0FF31306819F033
:1037400089F9012806D04FF4A0618E4B8E4A8F482C
:103750001FF08AFB02A8FEF7F1FF06A8FEF7EEFFB6
:103760004FF0FF31706D19F075F9012804D040F267
:103770000651844B844AEAE72EAF42F6A0428449C0
:10378000384620F03EFE0023706D1A46194618F0A8
:10379000BDFF0128054604D040F20951794B7A4A11
:1037A000D5E73C6101F070FC814672B64FF4FA3007
:1037B000D8F80030DFF810A2294600FB03A01BF068
:1037C00079F9054620B140F2C241724B724ABEE718
:1037D00062B6724CC8234FF4A072014600900FF0FD
:1037E000F9FE04F1380704F1200CBCE80F000FC704
:1037F0009CE8030087E8030001F09AFC0746C4E94F
:1038000008051AF075F83F1A63EB0303C4E90A735D
:1038100001F03AFCA36C226E20639B1AB3F57A7F09
:1038200006D3902204F1380104F1500020F048FB47
:10383000D4E91C23D4E91601801A61EB0301FEF7D9
:103840000BF9D4E91A3241EC180BD4E91401C01A6F
:1038500061EB0201FEF700F928EE098B41EC160B33
:1038600088EE067B2EACB7EEC78BD4ED007A9FEDC9
:103870004C7AC7EE278A0FF08DFB00210222084602
:10388000484B00F08FFB0FF085FBB7EEC87AC1887C
:1038900002228DED007B444B002000F083FB0FF0F3
:1038A00079FBC1880222414B01EB4101002000F06D
:1038B00079FB0FF06FFB0222C18863689140002002
:1038C00000933B4B00F06EFB0FF064FBA368C188D4
:1038D000022201EB810100200093364B00F062FBD5
:1038E0000FF058FBB7EEE87AC18802228DED007B1D
:1038F0000020314BC1EBC10100F054FB27460DF114
:10390000DC0BE3699D421FDB4FF4FA32D8F800303C
:1039100002FB03A3BFF34F8F4FF47A6E4EF001E02A
:10392000264AC2F8683220330FF005C8BFF34F8F24
:10393000BFF36F8F72B601201BF0C4F860B140F284
:10394000CC41144B1E4A02E759463846FFF72AFE7F
:1039500001350BF6D46BD4E762B6D8F80030C3F16A
:103960000103C8F8003001F08FFBA0EB0904E3E687
:10397000000000000000594064240834AD260034E3
:1039800055260034ED8B02347F910234FB8B0234D8
:103990000C250834628F02342891023480A110343F
:1039A00000007A44708F0234798F0234838F02349E
:1039B0008E8F0234988F0234A28F023400ED00E023
:1039C0001191023460A2103480A21034F0B5974DEA
:1039D00093B0974820F0F4F8D5F8FC30954C43F0BC
:1039E000807300212046944AC5F8FC3020F082FA0A
:1039F000BFF34F8F42F6E06E00234EF001E0E21875
:103A0000C5F8702220330FF007C0BFF34F8FBFF30C
:103A10006F8F8A4D4FF47A320021284620F06AFADF
:103A2000BFF34F8F4FF4FA5E00234EF001E07F4A60
:103A3000E918C2F8701220330FF007C0BFF34F8FA0
:103A4000BFF36F8F00227E4B0421CDE90A230F9331
:103A5000069302238DF81C307A4B012508931E2310
:103A60008DF8301078497948096806AF00FB0144A9
:103A7000CDE90D42764AADF8243039460EAB0AAC9A
:103A800004A88DF840501192049405931AF0D0FECA
:103A9000064630B140F242516E4B6F4A6F481FF0FC
:103AA000E3F928460FF02CFA30460FF0CFFD6C4EAC
:103AB0006C480FF067FA4FF0FF300FF05BFA96E8B2
:103AC000030087E8030039466748FEF7E9FE20B1A6
:103AD0004FF4AC615F4B654AE0E7D6E9020184E848
:103AE000030021466248FEF7DBFE044620B140F2A7
:103AF0006251584B5D4AD1E70146E0225D4820F013
:103B0000F9F901F0B9F9214628465B4A18F0DEFDC3
:103B10005A4B186020B940F26B51594B534ABDE7DC
:103B2000584E21463246284618F0D0FD371F46F839
:103B3000040C20B940F26D51534B4C4AAEE721467C
:103B40000320524A18F0C2FD514B186020B940F2D0
:103B50006F51504B454AA1E7214603204E4A18F0C9
:103B6000B5FD4E4B186020B940F271514C4B3F4AA5
:103B700094E7284606F1540118F06AFE786520B9EA
:103B800040F27351474B394A88E72846464918F0B6
:103B90005FFE464CC4F83C0C20B940F27551444BD2
:103BA000324A7BE70120434918F052FEC4F8900CDA
:103BB00020B940F27751404B2C4A6FE701203F4932
:103BC00018F046FEC4F8E40C20B940F279513C4BA1
:103BD000264A63E70021174801F01CFA394B4FF4DD
:103BE00000620293384B394901931C2338480093F3
:103BF000002319F0E5F820B940F28151354B1B4AFA
:103C00004CE7354B4FF420520293344B3449019327
:103C10001A2334480093002319F0D2F8002863D106
:103C200040F284512B4B114A38E700BF00ED00E011
:103C3000AD8F0234A08A143400DC050080A2103459
:103C40004001C80080AD0E34AC51083400EE0200D3
:103C500080961234C08F0234AD900234FB8B023454
:103C600020890234B8510834942C0D34EC9102347C
:103C7000B47B083480A11034600A0C34B00A0C34D0
:103C8000C98F023468240834D18F02340C0A0C34F2
:103C90005C0A0C34DD8F0234B8090C34080A0C3489
:103CA000E88F0234EF8F0234C0080C3480FC0B34F0
:103CB000F98F023414090C340A90023468090C3468
:103CC00020900234342C0D34340C0D3436900234F0
:103CD000792E0034C88B0234D40B0D34D46B0C34E1
:103CE00039900234D93600341A4B4FF400620293F3
:103CF000194B1A4901931E2319480093002319F008
:103D00005FF800B31D26174D174C00234FF40062D7
:103D10001649174802950194009619F051F868B1B8
:103D2000603504F5005400234FF40062CDE90064CF
:103D30000E490F48029519F043F848B940F28B51EB
:103D40000C4B0D4AAAE640F287510A4B0A4AA5E6F7
:103D500013B0F0BD746B0C34744B0C343C900234D3
:103D600005270034B44A0C34B40A0C3440900234B1
:103D700035290034C88B0234EC91023401282DE936
:103D8000F347064649D1464FDFF844813D68D8F8ED
:103D90000040013505F0010555EA55B50134DFF85D
:103DA00034A1DFF8349104F0010454EA54B413F060
:103DB000C7FB314600220AFB049303F0C5FE01460F
:103DC00030B14FF40571374B374A38481FF04CF883
:103DD0000AFB05901AF06EFE20B14FF40171344BCE
:103DE000344AF2E71AF06EFE20B140F20621304B61
:103DF000304AEAE71AF072FE20B140F209212C4B5A
:103E00002C4AE2E72C4A3D601368C8F800400133B1
:103E10001360002002B0BDE8F0870228F9D1274DD9
:103E200000212846FEF7FEFB04460028F1D013F0DF
:103E300087FB23460022314603F086FE20B140F284
:103E40002721184B1E4AC0E71B4B1E4A1B680190D6
:103E5000013B13601AF038F80346A0B1686D01A960
:103E600018F00CFD012804D040F2F711164B174A48
:103E7000ABE7019B002BCCD04FF0E0234FF08052FA
:103E8000C3F8042DC5E702460146686D18F03EFCF4
:103E90000128BED040F2FB110B4B0C4A95E700BF46
:103EA000AC510834628F023487900234FB8B0234A9
:103EB000C08F02347790023464AD0E34942C0D34EC
:103EC0005890023460AD0E34ED8B023447900234CA
:103ED000808A143400EE0200A08A1434012807B549
:103EE00010D100230193094B01A9186818F0C6FCF2
:103EF000012807D1019B2BB14FF0E0234FF08052F6
:103F0000C3F8042D002003B05DF804FBB00A0C34A4
:103F100000B54FF4EA7EDFED0B7A4EF001E0D0ED14
:103F2000006A86EEA77A81ED007AD0ED016A86EE0E
:103F3000A77A083081ED017A08310FF011C05DF8E1
:103F400004FB00BF000040431FB5154B7C2101AAB4
:103F500002A802930CF0BEFB0346E0B9019A02F4FA
:103F6000C031B1F5C03F17D042F4C0327C2102A865
:103F700001920CF0CBFB68B97C2101AA02A80CF0DD
:103F8000A9FB30B9019B03F4C033B3F5C03F03D0A4
:103F9000FEE7FEE7FEE7FEE705B05DF804FB00BFC5
:103FA0000090005608B4F3B504460D46164607AB1C
:103FB000094F53F8042B3021384601931FF0DEFEE1
:103FC00033463A46294620460FF094F902B0BDE840
:103FD000F04001B0704700BFA0661A347047FEE79A
:103FE000FEE7FEE7FEE708B513F0AAFABDE80840D1
:103FF00002F028B908B513F0A3FABDE8084001F0B3
:10400000EBBF000001480EF0D6BE00BF14690834B3
:1040100001480EF0E3BE00BF1469083408B5054935
:10402000054812F043FDBDE808400449044812F079
:104030003DBD00BF00382034000020348081203492
:104040000080203408B50549054812F02FFDBDE871
:1040500008400449044812F029BD00BF003820344C
:104060000020203400A2203400A02034014902485E
:1040700012F01CBD00342134001E213401490248D5
:1040800012F014BD005820340000203401490248C9
:1040900012F00CBD00F0203400A020340149024889
:1040A00012F004BD00A02034005020340149024821
:1040B00012F0FCBC00902034004820340149024832
:1040C00012F0F4BC004820340000203401490248BA
:1040D00012F0ECBC0080203400402034014902483A
:1040E00012F0E4BC004020340000203401490248B2
:1040F00012F0DCBC00A820340070203401490248D2
:1041000012F0D4BC00702034003820340149024839
:1041100012F0CCBC009020340060203401490248E9
:1041200012F0C4BC00602034003020340149024841
:1041300012F0BCBC0022223400F8213401490248AC
:1041400012F0B4BC00A82034000020340149024819
:1041500012F0ACBC00B021340020213401490248E7
:1041600012F0A4BC00202134009020340149024800
:1041700012F09CBC00802134000021340149024827
:1041800012F094BC00002134008020340149024820
:1041900012F08CBC00B0253400402534014902489F
:1041A00012F084BC00C021340000203401490248D0
:1041B00012F07CBC000023340080213430B5104D57
:1041C000104C85B02946204612F070FC00210846AC
:1041D00010F0C0FE01230222CDE902320A4B0B4A45
:1041E00001930B4B0B4900930B480C4B11F0E8FB70
:1041F0002946204605B0BDE8304012F081BC00BF22
:10420000005820340040203488DF023490DF02342C
:104210008CDF023458DF0234C8DF023478DF023426
:1042200030B5104D104C85B02946204612F03EFCAA
:104230000021084610F08EFE01230222CDE9023251
:104240000A4B0B4A01930B4B0B4900930B480C4B49
:1042500011F0B6FB2946204605B0BDE8304012F00B
:104260004FBC00BF0016203400002034D0DE0234E2
:10427000D8DE0234D4DE0234A0DE023410DF023491
:10428000C0DE023430B5104D104C85B029462046B2
:1042900012F00CFC0021084610F05CFE06230722F9
:1042A000CDE902320A4B0B4A01930B4B0B490093A9
:1042B0000B480C4B11F084FB2946204605B0BDE8A5
:1042C000304012F01DBC00BF00B020340058203434
:1042D00018DE023420DE02341CDE0234E8DD023453
:1042E00058DE023408DE023430B5104D104C85B073
:1042F0002946204612F0DAFB0021084610F02AFE7B
:1043000006230722CDE902320A4B0B4A01930B4BDD
:104310000B4900930B480C4B11F052FB29462046E9
:1043200005B0BDE8304012F0EBBB00BF00502034B8
:104330000000203460DD023468DD023464DD0234C4
:1043400030DD0234A0DD023450DD023430B5104DD2
:10435000104C85B02946204612F0A8FB00210846E3
:1043600010F0F8FD08230922CDE902320A4B0B4A6E
:1043700001930B4B0B4900930B480C4B11F020FBA6
:104380002946204605B0BDE8304012F0B9BB00BF59
:1043900000F0203400A02034A8DC0234B0DC023469
:1043A000ACDC023478DC0234E8DC023498DC023421
:1043B00030B5104D104C85B02946204612F076FBE2
:1043C0000021084610F0C6FD04230522CDE9023283
:1043D0000A4B0B4A01930B4B0B4900930B480C4BB8
:1043E00011F0EEFA2946204605B0BDE8304012F043
:1043F00087BB00BF0048203400002034F0DB0234CB
:10440000F8DB0234F4DB0234C0DB023430DC02348B
:10441000E0DB023430B5104D104C85B02946204603
:1044200012F044FB0021084610F094FD0223032201
:10443000CDE902320A4B0B4A01930B4B0B49009317
:104440000B480C4B11F0BCFA2946204605B0BDE8DC
:10445000304012F055BB00BF00902034004820349B
:1044600038DB023440DB02343CDB023408DB02344C
:1044700078DB023428DB023430B5104D104C85B0A7
:104480002946204612F012FB0021084610F062FD7A
:1044900002230322CDE902320A4B0B4A01930B4B54
:1044A0000B4900930B480C4B11F08AFA2946204621
:1044B00005B0BDE8304012F023BB00BF00402034FF
:1044C0000000203480DA023488DA023484DA0234DC
:1044D00050DA0234C0DA023470DA023430B5104DEA
:1044E000104C85B02946204612F0E0FA002108461B
:1044F00010F030FD06230722CDE902320A4B0B4AA9
:1045000001930B4B0B4900930B480C4B11F058FADD
:104510002946204605B0BDE8304012F0F1BA00BF90
:104520000080203400402034C8D90234D0D902346D
:10453000CCD9023498D9023408DA0234B8D902341A
:1045400030B5104D104C85B02946204612F0AEFA19
:104550000021084610F0FEFC06230722CDE90232B6
:104560000A4B0B4A01930B4B0B4900930B480C4B26
:1045700011F026FA2946204605B0BDE8304012F079
:10458000BFBA00BF003820340000203410D90234F4
:1045900018D9023414D90234E0D8023450D9023484
:1045A00000D9023430B5104D104C85B02946204654
:1045B00012F07CFA0021084610F0CCFC0123042202
:1045C000CDE902320A4B0B4A01930B4B0B49009386
:1045D0000B480C4B11F0F4F92946204605B0BDE814
:1045E000304012F08DBA00BF00A820340070203493
:1045F00058D8023460D802345CD8023428D8023447
:1046000098D8023448D8023430B5104D104C85B0DB
:104610002946204612F04AFA0021084610F09AFC7A
:1046200006230722CDE902320A4B0B4A01930B4BBA
:104630000B4900930B480C4B11F0C2F92946204658
:1046400005B0BDE8304012F05BBA00BF0030203446
:1046500000002034A0D70234A8D70234A4D70234F3
:1046600070D70234E0D7023490D7023430B5104D01
:10467000104C85B02946204612F018FA0021084651
:1046800010F068FC04230822CDE902320A4B0B4AE1
:1046900001930B4B0B4900930B480C4B11F090F915
:1046A0002946204605B0BDE8304012F029BA00BFC7
:1046B0000090203400602034E8D60234F0D6023472
:1046C000ECD60234B8D6023428D70234D8D6023415
:1046D00030B5104D104C85B02946204612F0E6F951
:1046E0000021084610F036FC06230722CDE90232ED
:1046F0000A4B0B4A01930B4B0B4900930B480C4B95
:1047000011F05EF92946204605B0BDE8304012F0B0
:10471000F7B900BF002A20340000203430D602341C
:1047200038D6023434D6023400D6023470D602347D
:1047300020D6023430B5104D104C85B029462046A5
:1047400012F0B4F90021084610F004FC0023042202
:10475000CDE902320A4B0B4A01930B4B0B490093F4
:104760000B480C4B11F02CF92946204605B0BDE84A
:10477000304012F0C5B900BF0050213400A82034E9
:1047800078D5023480D502347CD5023448D5023441
:10479000B8D5023468D5023430B5104D104C85B010
:1047A0002946204612F082F90021084610F0D2FB7B
:1047B00008230922CDE902320A4B0B4A01930B4B25
:1047C0000B4900930B480C4B11F0FAF82946204690
:1047D00005B0BDE8304012F093B900BF009020341E
:1047E00000002034C0D40234C8D40234C4D402340B
:1047F00090D4023400D50234B0D4023430B5104D18
:10480000104C85B02946204612F050F90021084688
:1048100010F0A0FB04230522CDE902320A4B0B4A1B
:1048200001930B4B0B4900930B480C4B11F0C8F84C
:104830002946204605B0BDE8304012F061B900BFFE
:1048400000B021340020213408D4023410D40234C2
:104850000CD40234D8D3023448D40234F8D302340E
:1048600030B5104D104C85B02946204612F01EF987
:104870000021084610F06EFB08230922CDE9023220
:104880000A4B0B4A01930B4B0B4900930B480C4B03
:1048900011F096F82946204605B0BDE8304012F0E8
:1048A0002FB900BF008020340000203450D30234E0
:1048B00058D3023454D3023420D3023490D3023478
:1048C00040D3023430B5104D104C85B029462046F7
:1048D00012F0ECF80021084610F03CFB04230522FE
:1048E000CDE902320A4B0B4A01930B4B0B49009363
:1048F0000B480C4B11F064F82946204605B0BDE882
:10490000304012F0FDB800BF008021340000213497
:1049100098D20234A0D202349CD2023468D202343B
:10492000D8D2023488D2023430B5104D104C85B044
:104930002946204612F0BAF80021084610F00AFB7A
:1049400001230222CDE902320A4B0B4A01930B4BA1
:104950000B4900930B480C4B11F032F829462046C6
:1049600005B0BDE8304012F0CBB800BF00202634BF
:1049700000B02534E0D10234E8D10234E4D102346D
:10498000B0D1023420D20234D0D1023430B5104D2F
:10499000104C85B02946204612F088F800210846C0
:1049A00010F0D8FA00230922CDE902320A4B0B4A53
:1049B00001930B4B0B4900930B480C4B11F000F883
:1049C0002946204605B0BDE8304012F099B800BF36
:1049D000004025340080233428D1023430D1023401
:1049E0002CD10234F8D0023468D1023418D1023408
:1049F00030B5104D104C85B02946204612F056F8BF
:104A00000021084610F0A6FA00230922CDE902325F
:104A10000A4B0B4A01930B4B0B4900930B480C4B71
:104A200010F0CEFF2946204605B0BDE8304012F018
:104A300067B800BF008021340000203470D00234F9
:104A400078D0023474D0023440D00234B0D0023472
:104A500060D0023440B911F01F0007D1B2F5404FC9
:104A600006D3044B1960704703207047012070473C
:104A700002207047B8801A3410B9024B186870478A
:104A800000207047B8801A34032070470020704718
:104A900000220F4B13B51A6010F00AFD0D49A1F565
:104AA000CF5011F0FBFF10F01BFD4FF4CF630A490C
:104AB0000A4801AA019311F06FFF044620B105498D
:104AC000A1F5CF5012F01CF8204602B010BD00BF77
:104AD000D0661A34B8801A34485D0434D8661A3463
:104AE00013B510F0E5FC0D49A1F5CF5011F0D6FF3C
:104AF00010F0F6FC0A4B002200930A4B0A491B688F
:104B00000A4811F083FF044620B10449A1F5CF50B3
:104B100011F0F6FF204602B010BD00BFB8801A3475
:104B2000D0661A34B8801A34D8661A34605D0434FA
:104B30000048704700E0023400487047C0CF02349C
:104B40000048704780CE02340048704758AD0234A8
:104B500030B5AFB0B422002101A81FF0CBF92A2351
:104B60004FF46A728DF8043001230421CDE902323A
:104B7000CDE90D32CDE906220A9211924FF46A6214
:104B8000CDE91221CDE91412104A114D114C0DEB53
:104B9000010021921032CDE90433CDE90833CDE98B
:104BA0000F338DF830308DF85C301C938DF88830E1
:104BB00027932C928DF8B4300B95169411F03AFE91
:104BC0002946204611F09CFF2FB030BD70595F7010
:104BD000A00E2034000020340149024811F066BFC5
:104BE00060122034A00E20340149024811F05EBF4B
:104BF00080042034400220340149024811F056BF9D
:104C000000D022340040223430B50E4D0E4C85B019
:104C10002946204611F04AFF0021084610F09AF973
:104C200002230422CDE9013203230121074A009324
:104C3000074810F0B7FE2946204605B0BDE83040D1
:104C400011F05EBF400220340000203404B104346F
:104C500074B1043430B5104D104C85B0294620464F
:104C600011F024FF0021084610F074F908230922EE
:104C7000CDE902320A4B0B4A01930B4B0B490093CF
:104C80000B480C4B10F09CFE2946204605B0BDE8B1
:104C9000304011F035BF00BF0010253400802434AF
:104CA0003CB0043444B0043440B004340CB0043498
:104CB0007CB004342CB0043440B911F01F0007D18B
:104CC000B2F5D83F06D3044B1960704703207047F4
:104CD0000120704702207047D0B71A3410B9024B38
:104CE0001868704700207047D0B71A340320704707
:104CF0000020704700220E4B13B51A6010F0D8FB4D
:104D00000C490D4811F0CAFE10F0EAFB40F6C353FF
:104D10000A49094801AA019311F03EFE044618B160
:104D20000449054811F0ECFE204602B010BD00BF5A
:104D3000BC801A34CCB71A34C0801A3428FE06342A
:104D400013B510F0B5FB0C490C4811F0A7FE10F09C
:104D5000C7FB0B4B002200930A4B08491B680A480B
:104D600011F054FE044618B10349044811F0C8FE7E
:104D7000204602B010BD00BFCCB71A34C0801A3430
:104D8000BC801A34D0B71A3440FE0634004870474D
:104D9000E4B10434004870478CAF043400487047D5
:104DA000F4AE0434004870475C8D043407EE901A6A
:104DB000F8EEE76A07EE902A9FED286AB8EEE77AE8
:104DC000DFED275A86EE865AC7EE257AB4EE675A8B
:104DD000F1EE10FA48BFF0EE457AB7EE005AF4EE65
:104DE000C57AF1EE10FA08B505DA20211D4B1E4AEE
:104DF0001E481EF039F89FED1E5AF4EEC57AF1EE0A
:104E000010FA03D421211B4B174AF1E727EE866ADB
:104E100067EEA57AF4EEC66AF1EE10FAB4EEE77A20
:104E2000CCBFFCEEC66AFCEEE66AF1EE10FA16EEB6
:104E3000903ACCBFBCEEE77ABCEEC77A0131C91A12
:104E400017EE103A0132D21A49085208C0ED006A32
:104E500080ED017A8160C26008BD00BF0000A04300
:104E60000000484380350734553607348B35073406
:104E70000000804299350734F0B59DB00DF1070070
:104E800012F050FC28B17F21594B5A4A5A481DF064
:104E9000EBFF012409AE30468DF8244012F09AFD54
:104EA00018B18721524B534AF0E74FF4FA630B9342
:104EB0001E230225CDE905309DF80730CDE903001A
:104EC000012B08BF3146079018BF002103A80895A1
:104ED00012F0B6FC064618B19221454B454AD5E77B
:104EE00012F02EFB40F22F2C0F23CDE9146604267E
:104EF00011A90746CDE91155CDE916C3139600F067
:104F00006DFF18B161213D4B3D4ABFE705234FF4CA
:104F10000C71119340F27F231790CDE91513384699
:104F200011A9CDE9136500F059FF18B16A21334B7F
:104F3000334AABE74FF4A072C8230326CDE911230F
:104F4000DDE90312CDE91540139018A814961796C1
:104F5000FFF72CFF204602AA11A912F0F5FA18B1AA
:104F60003A21264B274A91E7149A119B5343029A00
:104F7000934203D03B21244B224A87E78023DDE97B
:104F800003125027CDE91306CDE9154018A8CDE945
:104F900011371796FFF70AFF284602AA11A912F047
:104FA000D3FA18B14F21154B184A6FE7149A119B89
:104FB0005343029A934203D03946134B134A65E791
:104FC00012F0BEFA4FF460422146054602F04CFE54
:104FD00018B17221094B0E4A58E70121284602F008
:104FE0009BFE18B17421054B094A4FE71DB0F0BD77
:104FF000A4350734913607348B350734628F023479
:105000007F36073468360734BA35073443360734F9
:105010002D3607340A4608B50146012012F056FB2A
:1050200028B1A021024B034A03481DF01DFF08BD13
:10503000A4350734173607348B3507340A4608B5CC
:105040000146022012F042FB28B1A821024B034A7C
:1050500003481DF009FF08BDA435073406360734A0
:105060008B35073408B512F04DFC28B1B021034B45
:10507000034A04481DF0F8FE08BD00BFA4350734FC
:10508000F83507348B35073418F03CB808B5EFF322
:1050900005832BB12721044B044A05481DF0E4FE8B
:1050A000BDE8084018F090B9E2470734B936073434
:1050B0009A36073400207047042213B5154B164C5E
:1050C000C3F8642AD3F864320193019B134B236025
:1050D0004FF0FF33E36005F0DBFD114BB0FBF3F065
:1050E00000230138606020462361A3600CF012FAAF
:1050F00028B13E210B4B0C4A0C481DF0B5FE204652
:105100000CF046F818B14121064B074AF4E702B00B
:1051100010BD00BF0080025694CA1A340008005027
:10512000A0860100628F0234AD3607349A36073408
:10513000014B1B68586A704794CA1A34034B0360CA
:10514000034B0B604FF480631360704734CA1A340A
:1051500034BA1A34034B0360034B0B608023136093
:10516000704700BFD4B91A34D4B71A34444B454AF7
:1051700070B501209A60022500224349434E01F593
:105180008054C1F8180AC4F81802C4F85802C3F8C9
:10519000D820C3F8DC20C3F8E020C3F8D800C3F857
:1051A000DC20C3F8E020C3F8D8500325C3F8DC2086
:1051B000C3F8E020C3F8D8500425C3F8DC20C3F8B6
:1051C000E020C3F8D8500525C3F8DC20C3F8E02060
:1051D000C3F8D8500625C3F8DC20C3F8E020C3F894
:1051E000D8500725C3F8DC20C3F8E020C3F8D85016
:1051F000C3F8DC20C3F8E020C1F8780AD1F878229F
:105200009A683261224AD56B45F48055D563D56BD7
:1052100045F01005D563D26BD1F8742242F40042F8
:10522000C1F87422D1F8782242F01002C1F8782235
:10523000D1F87822D1F8782222F01002C1F8782231
:105240004FF44052C1F8202AC4F820224022C1F86D
:10525000240AC4F82402C4F86402C4F85C22326947
:10526000C4F87802D3F8882042F47002C3F888208A
:10527000084AD2F8883043F47003C2F8883070BD11
:1052800000ED00E00004003400800256008000566B
:105290000048025600ED02E07B4BF0B51A6A02F4BA
:1052A0004012B2F5001F00F0D18008D8002A39D092
:1052B000B2F5801F3CD00022744B1A60F0BDB2F5ED
:1052C000401FF8D1D3F8C42002F04052B2F1805F01
:1052D00036D0B2F1005F44D0002A52D1D3F88020FA
:1052E00012F0006402F0E04140F0B980D3F884008D
:1052F000D3F88830C2F30B2520F07F400C46B4F180
:10530000005FC3F3C266C2F30551C3F3026300F04A
:10531000948000F29D80002C47D0B4F1805F7CD057
:10532000002249E09B6C5A4AC3F3C113DA40C3E739
:105330005B6C584A13F4007F574B08BF1A46BBE713
:10534000D3F8902012F0006402F0E04140F0878032
:10535000D3F89400C2F30B25D3F8983020F07F40A7
:10536000CCE7D3F8A02012F0006402F0E04176D13F
:10537000D3F8A400C2F30B25D3F8A83020F07F4067
:10538000BCE7D3F8B02012F0006402F0E04166D12F
:10539000D3F8B400C2F30B25D3F8B83020F07F4027
:1053A000ACE70B460E4608460D46374A976C384A1E
:1053B000C7F3C117FA403CBB07EE100AB8EEC76A44
:1053C00007EE105A07EE902ADFED346AB8EEC77A7E
:1053D000F8EEE77AA6EE267A67EE877A07EE101ADD
:1053E000B8EEC77AC7EE876A07EE906AB8EEE77A3A
:1053F00007EE903AF8EEE77A27EE277AC6EE877A3C
:10540000FCEEE77A17EE902A1F4BD3F8C430C3F3B3
:1054100007430133B2FBF3F24EE700241A4A1E4F52
:10542000526C12F4007F1B4A08BF3A46C3E70023C0
:105430001E4618461D461946F0E70024184ABAE7EA
:1054400000231E4618461D461946F7E7144A33E75F
:10545000B4F1405F7FF464AF0024124AABE7B1F1CE
:10546000005FEDD006D800299BD0B1F1805FDED07F
:105470000022C9E7B1F1405FFAD100231E46184669
:105480001D461946E9E700BF00800256B0510834B6
:105490000090D0030024F40000093D000000803398
:1054A000006CDC020080BB006DED81CF00B5FFF722
:1054B000F3FE054B5DF804EB18689FEC100A9FE8BB
:1054C0000E90FDEC81CF7447B0510834704710B591
:1054D000032000F01FF8FFF7DFFE0F20FFF7EAFDC3
:1054E000044618B9FFF7F2FF204610BD0124FBE780
:1054F000014B5869704700BF00900056014B9869F6
:10550000704700BF00900056014BD869704700BF3C
:1055100000900056C31E042B10B5044603D9E621A3
:105520000948FCF79DFF09492302CA6803F4E063B8
:1055300022F4E0621204120C134343F0BF6343F4FD
:105540000033CB6010BD00BFC336073400ED00E070
:1055500010F10C0F2DE9F04105460C46174601DB12
:10556000031D03D1FF212648FCF77AFF254BDE6897
:10557000C6F30226022E06D857B14FF48171204897
:10558000FCF76EFF04E00123F21E9340BB42F4D906
:105590000F2CC6F1070804D8012303FA08F3A3422D
:1055A00004D840F203111648FCF75AFFB8F1040F73
:1055B00006F1040328BF4FF004084FF0FF32062B1A
:1055C000A6F1030698BF002602FA08F824EA0803A9
:1055D000B24027EA0207B340002D43EA0703ACBFFD
:1055E00005F16045084A4FEA0313DBB2ABBF05F58E
:1055F000614505F00F0585F800335355BDE8F0818E
:10560000C336073400ED00E014ED00E0002808DBAD
:1056100001234109054A00F01F00834042F8213070
:10562000704740F215110248FCF71ABF00E100E094
:10563000C336073400280DDB01220949430900F075
:105640001F008240203341F82320BFF34F8FBFF368
:105650006F8F70474FF493710248FCF701BF00BF92
:1056600000E100E0C3360734024BD868C0F30220E3
:10567000704700BF00ED00E010F10C0FF8B50446D4
:105680000D4617461E4601DB031D04D14FF4BC71C5
:105690001948FCF7E5FEEB1E042B04D940F2791102
:1056A0001548FCF7DDFE002CACBF04F16044134B41
:1056B00005F00701C1F10702ABBF04F5614404F036
:1056C0000F0494F800331B5D081D042A28BF042230
:1056D0000628A1F103014FF0FF3098BF00211B09FC
:1056E00000FA02F223FA01F4884024EA020223EAD3
:1056F00000033A603360F8BDC336073414ED00E0B0
:10570000F8B51446036871BBD3F8042422F4C01220
:1057100042EAC442C3F80424234B022C1A6838D04E
:10572000032C39D0012C3AD142F040021A60FFF725
:10573000ABFC4FF4003607461B4DA640FFF7A4FC18
:10574000C01BB0F57A7F2DD8D5F8903036EA030328
:10575000F4D14FF488530020D5F88020A3401343A0
:10576000C5F88030F8BD0129D3F8042806D122F409
:10577000C01242EAC442C3F80428CDE7520341BF35
:10578000D3F8042C22F4C01242EAC442C3F8042C19
:10579000C2E742F48062C9E742F48042C6E742F0C1
:1057A0000402C3E70120DDE700600058012930B59D
:1057B0004FF00205046810D18571D4F800190B432D
:1057C000C4F80039C4F8C429D4F8F03343F406030C
:1057D00043F02003C4F8F03330BD08444571D4F8D9
:1057E000001D0B43C4F8003DC4F8C42DD4F8F033B9
:1057F00043F00643ECE770B415461E4699B9022300
:1058000001684371D1F800253243C1F80025C1F881
:10581000C455D1F8F03370BC43F4064343F0200381
:10582000C1F8F033704770BCFFF7C0BF022383712B
:105830000368D3F8042842F00042C3F80428D3F8E0
:10584000002942F00802C3F80029704769B90368CB
:10585000D3F8042442F00042C3F80424D3F800250E
:1058600042F00802C3F800257047012901D1FFF773
:10587000DDBF0368D3F8042C42F00042C3F8042CC7
:10588000D3F8002D42F00802C3F8002D7047000045
:10589000184B10B55A69C9B242F480325A611A697C
:1058A00042F001021A615A6942F480325A610022C0
:1058B0001A615A615C695C611C6944F001041C61F5
:1058C0001A615C6944F480345C611C6944F0010431
:1058D0001C615C69044344F480345C611A615A6160
:1058E000586901435961196941F0010119611A614F
:1058F00010BD00BF0070005810B50446D8B1036851
:105900000E4A934208D002F17042934204D04FF401
:10591000A7710B48FCF7A4FD237913B9204612F0B8
:105920001DF803230020237101236071A071E07131
:10593000A060237110BD0120FCE700BF00200058CB
:105940000B3707342DE9F0410546FEB00C464FF405
:10595000FC72684654491EF054FD1DB901207EB00A
:10596000BDE8F081002CF9D02B68504A934208D052
:1059700002F17042934204D040F28B214C48FCF774
:105980006FFD2368B3F5807F07D0B3F5007F04D0A7
:105990004FF423714648FCF763FD6368013B012B1C
:1059A00004D940F28D214248FCF75AFDA3683E2BF2
:1059B00004D940F28E213E48FCF752FD3D4B1A6857
:1059C00022F001021A60616801291AD1226842F4AA
:1059D00004121A671A6842F001021A60D3F8802094
:1059E00042F0B04242F40412C3F880202268B2F5BB
:1059F000807FD3F8842054D1012908D142F01F02BE
:105A000007E00229AAD1226842F49012E1E742F4A9
:105A1000F8520026284DC3F884202B68254F23F028
:105A200002032B607E602B69012043F001032B6190
:105A3000FFF72CFB2E61D4F80880AB685DF83820A6
:105A400023F4FE4343EA022343F02803AB603821EA
:105A500008201602FFF71CFF1121E420FFF718FFB2
:105A60000DEBC803D3F80480E3204FEA182146F475
:105A70008036FFF70DFF46F02806E3205FFA88F135
:105A8000FFF706FFAE6023680020B3F5807F0CBFF0
:105A900007230F237B602B6843F002032B606860B1
:105AA0005DE742F4F852A9E730890234002000583B
:105AB0000B370734006000580070005870B50D4671
:105AC0001446064608B9012070BD002AFBD00368C1
:105AD000524A934208D002F17042934204D04FF4EC
